:100000000C9487000C94A4000C94A4000C94A400FD
:100010000C94A4000C94A4000C94A4000C94A400D0
:100020000C94A4000C94A4000C94A4000C94A400C0
:100030000C94A4000C94A4000C94A4000C94A400B0
:100040000C94A4000C94A4000C94A4000C94A400A0
:100050000C94A4000C94A4000C94A4000C94A40090
:100060000C94A4000C94A4000C94A4000C94A40080
:100070000C94A4000C94A4000C94A4000C94A40070
:100080000C94A4000C94A4000C94A4000C94A40060
:100090000C94A4000C94A4000C94A4000C94A40050
:1000A0000C94A4000C94A4000C94A4000C94A40040
:1000B0000C94A40008000000BE922449123EABAA92
:1000C000AA2ABECDCCCC4C3E00000080BEABAAAA72
:1000D000AA3E00000000BF000000803F00000000BA
:1000E00000084178D3BB4387D1133D190E3CC3BDF3
:1000F0004282AD2B3E68EC8276BED98FE1A93E4CA0
:1001000080EFFFBE01C4FF7F3F000000000011240C
:100110001FBECFEFD8E0DEBFCDBF12E0A0E0B1E060
:10012000E2E5FEE002C005900D92A431B107D9F7D7
:1001300022E0A4E1B2E001C01D92A732B207E1F7CC
:100140000E94FD030C9427070C94000007E004B9FB
:1001500000E005B901B910E007E61093C50000936F
:10016000C40008E10093C10006E00093C20007E864
:1001700000937A0000E400937C0007E000937B008A
:100180000EEF00937E000FEF00937F0008950E9412
:1001900004010FEF0AB9009114020BB904E005B98C
:1001A0000E94D90000E005B90E94D9000E94FE001B
:1001B00008950FEF1FEF1A95F1F70A95D9F70895F3
:1001C0000E9404010FEF0AB9009114020BB906E076
:1001D00005B90E94D90000E005B90E94D9000E942B
:1001E000FE0008950E94040100E00AB945B80BB171
:1001F0000093140205B80E94FE00089502E00AB9B7
:1002000008E10093C100089500E00093C100089543
:100210000091C00007FF08950091C600F9CF00913A
:10022000C00007FFFCCF0091C6000093160208959E
:100230000091C6000093160208951091C00015FFAA
:10024000FCCF009116020093C6000092C6000895EC
:1002500007EE00937A0000917A0006FDFCCF009132
:100260007800009320020091790000931502089510
:10027000F999FECF20E015E006E422BD11BD00BDD6
:10028000FA9AF99A0895F999FECF20E015E000E076
:1002900022BD11BDF89A00B5009316020895CF93C0
:1002A000DF93EC018991882329F0809316020E9444
:1002B0001D01F8CFDF91CF910895CF93DF93EC012B
:1002C0008991882329F0809314020E94E000F8CFDE
:1002D000DF91CF91089587EF91E00E944F0180EC6C
:1002E00091E00E944F0185E991E00C944F018FE964
:1002F00091E00C944F01AF92BF92CF92DF92EF92B8
:10030000FF920F931F93CF93DF937C018B01EC013E
:1003100009900020E9F72197C81BD90BFB01019038
:100320000020E9F731979F01261B370B6B01FA017B
:100330005901A40EB51EEA15FB056CF4CF01BE01F0
:100340000E94EF06D701A80FB91F8C91D6018D939B
:100350006D013196F0CFF801E20FF31F1082DF91AB
:10036000CF911F910F91FF90EF90DF90CF90BF90B2
:10037000AF900895CF93DF93CDB7DEB761970FB6F7
:10038000F894DEBF0FBECDBF9C0181E090E090935A
:100390001F0280931E02F90101900020E9F73197B6
:1003A000BF01621B730B81E1E9E3F1E0DE0111960D
:1003B00001900D928A95E1F7809123029091240299
:1003C0000E94EF06AC01BE016F5F7F4FC9010E9422
:1003D0007B01CE0101960E945D010E94D9000E941E
:1003E000180180911602883749F410921F0210926A
:1003F0001E02109224021092230235C00E94D900DE
:100400000E94D9000E94D9000E94D9000E94D90000
:100410000E94D9000E94D9000E94D9000E94D900F0
:100420000E94D9000E94D9000E94D9000E94D900E0
:100430000E94D9000E94D9000E94D9000E94D900D0
:100440000E94D9000E94D9000E94D9000E94D900C0
:100450000E94D900809123029091240201969093EA
:1004600024028093230261960FB6F894DEBF0FBE7C
:10047000CDBFDF91CF910895CF93DF93CDB7DEB796
:10048000E2970FB6F894DEBF0FBECDBF84E3809332
:1004900014020E94C70088E0809314020E94C700E3
:1004A00082E0809314020E94C70086E080931402C9
:1004B0000E94C7008FE0809314020E94C70081E26F
:1004C000E7E0F1E0DE01119601900D928A95E1F7E7
:1004D000FE01B29681E1DF011D928A95E9F7CE0116
:1004E00001960E94BA01E2960FB6F894DEBF0FBEE5
:1004F000CDBFDF91CF9108958F929F92AF92BF921F
:10050000CF92DF92EF92FF920F931F93CF9381E0F0
:1005100090E090932602809325020E94280160912A
:10052000150270E0762F662780912002680F711DFA
:100530007093220260932102072E000C880B990B06
:100540000E9427056B017C0120E030E44CE156E479
:100550000E945B064B015C01A701960160E070E020
:1005600080E894E40E9410049B01AC01C501B40131
:100570000E947D0420E030E44CE156E40E947D04BA
:100580000E9413062CE53FEA43E953E40E945B0610
:1005900020E030EE46E755E40E9411049B01AC01D7
:1005A0006CEB7BE68EE899E40E947D0423E333E95B
:1005B00048E853E40E94100426E636E646EE5FE380
:1005C0000E945B0620E030E040E052E40E9411040B
:1005D00020E030E040E251E40E945B060E94EF041C
:1005E000CB0168EE73E00E94EF068C01072E000C31
:1005F000880B990B0E9427050E94620520E030E0DD
:1006000040E452E40E9411040E94F604C62FC8017F
:1006100064E670E00E94EF068C01072E000C880B48
:10062000990B0E9427050E94620520E030E040E41B
:1006300052E40E9411040E94F604E62EC8016AE00A
:1006400070E00E94EF068C01072E000C880B990BBE
:100650000E9427050E94620520E030E040E452E459
:100660000E9411040E94F604F62EB801110F880BA7
:10067000990B0E9427050E94620520E030E040E4CB
:1006800052E40E9411040E94F604C03309F4C0E24F
:10069000C0931702E0921802F09219028EE2809342
:1006A0001A0260931B0287EA80931C0210921D02BB
:1006B00067E172E080E091E00E941707892B91F0DA
:1006C0008AE491E00E944F0187E192E00E944F018D
:1006D00086E591E00E944F0167E172E080E091E0E1
:1006E0000E9420070E94D9000E94D9000E94D900D0
:1006F0000E94D9000E941801809116028837D1F417
:100700008091230290912402C397A4F010922602B4
:100710001092250264E471E080E091E00E942007DD
:1007200064E471E087E192E00E94200710922402C5
:1007300010922302809123029091240201969093BB
:10074000240280932302CF911F910F91FF90EF908D
:10075000DF90CF90BF90AF909F908F9008958AE5E3
:1007600091E00E944F0183E791E00E944F010E94B7
:10077000380183E791E00E944F010E9443010E94EB
:100780001D0183E791E00C944F0180912502909127
:100790002602892B11F081E607C080911E029091FC
:1007A0001F02892B21F08CE6809316020DC08FE981
:1007B00091E00E944F011092160280911602811161
:1007C00003C00E940F01F9CF80911602853661F0B7
:1007D00020F4813659F40C947C028C3619F0883759
:1007E00059F004C00C943C020C94AF0386E791E0EE
:1007F0000E944F010C94770108950E94A6000E9468
:100800006B01109226021092250210921F02109284
:100810001E0210922402109223020E94C503FDCFF3
:100820005058BB27AA270E9428040C94B9050E949F
:10083000AB0538F00E94B20520F039F49F3F19F45F
:1008400026F40C94A8050EF4E095E7FB0C947905CA
:10085000E92F0E94CA0558F3BA1762077307840785
:10086000950720F079F4A6F50C9404060EF4E095B3
:100870000B2EBA2FA02D0B01B90190010C01CA015A
:10088000A0011124FF27591B99F0593F50F4503E05
:1008900068F11A16F040A22F232F342F4427585FF7
:1008A000F3CF469537952795A795F0405395C9F70F
:1008B0007EF41F16BA0B620B730B840BBAF09150C7
:1008C000A1F0FF0FBB1F661F771F881FC2F70EC066
:1008D000BA0F621F731F841F48F487957795679539
:1008E000B795F7959E3F08F0B0CF9395880F08F025
:1008F0009927EE0F9795879508950E9491040C947F
:10090000B9050E94B20558F00E94AB0540F029F4E9
:100910005F3F29F00C94790551110C9405060C9455
:10092000A8050E94CA0568F39923B1F3552391F3F2
:10093000951B550BBB27AA2762177307840738F04E
:100940009F5F5F4F220F331F441FAA1FA9F335D0AB
:100950000E2E3AF0E0E832D091505040E695001C5F
:10096000CAF72BD0FE2F29D0660F771F881FBB1F19
:10097000261737074807AB07B0E809F0BB0B802DF7
:10098000BF01FF2793585F4F3AF09E3F510578F023
:100990000C9479050C9405065F3FE4F3983ED4F37C
:1009A000869577956795B795F7959F5FC9F7880FF7
:1009B000911D9695879597F90895E1E0660F771F49
:1009C000881FBB1F621773078407BA0720F0621BDA
:1009D000730B840BBA0BEE1F88F7E09508950E9405
:1009E000F6046894B1110C94050608950E94D2058E
:1009F00088F09F5798F0B92F9927B751B0F0E1F0E0
:100A0000660F771F881F991F1AF0BA95C9F714C08F
:100A1000B13091F00E940406B1E008950C940406F0
:100A2000672F782F8827B85F39F0B93FCCF38695C8
:100A300077956795B395D9F73EF490958095709525
:100A400061957F4F8F4F9F4F0895E89409C097FBA2
:100A50003EF490958095709561957F4F8F4F9F4F95
:100A60009923A9F0F92F96E9BB279395F6958795D9
:100A700077956795B795F111F8CFFAF4BB0F11F49C
:100A800060FF1BC06F5F7F4F8F4F9F4F16C0882343
:100A900011F096E911C0772321F09EE8872F762F79
:100AA00005C0662371F096E8862F70E060E02AF0BA
:100AB0009A95660F771F881FDAF7880F96958795A6
:100AC00097F908950E94EC0590F09F3748F4911132
:100AD00016F00C94050660E070E080E89FEB089546
:100AE00026F41B16611D711D811D0C947F050C944D
:100AF0009A0597F99F6780E870E060E00895882381
:100B000071F4772321F09850872B762F07C0662346
:100B100011F499270DC09051862B70E060E02AF007
:100B20009A95660F771F881FDAF7880F9695879535
:100B300097F908959F3F31F0915020F4879577956C
:100B40006795B795880F911D9695879597F90895A4
:100B50009FEF80EC089500240A94161617061806D5
:100B60000906089500240A941216130614060506B1
:100B70000895092E0394000C11F4882352F0BB0F42
:100B800040F4BF2B11F460FF04C06F5F7F4F8F4FA5
:100B90009F4F089557FD9058440F551F59F05F3FE0
:100BA00071F04795880F97FB991F61F09F3F79F08F
:100BB00087950895121613061406551FF2CF469511
:100BC000F1DF08C0161617061806991FF1CF869593
:100BD00071056105089408950E94D205A0F0BEE752
:100BE000B91788F4BB279F3860F41616B11D672F1C
:100BF000782F8827985FF7CF869577956795B11DF1
:100C000093959639C8F30895E894BB27662777270C
:100C1000CB0197F9089516F00C949A050C94A80549
:100C200068940C9479050E94D205A8F39923C1F326
:100C3000AEF3DF93CF931F930F93FF92C92FDD275E
:100C400088232AF02197660F771F881FDAF720E0A4
:100C500030E040E85FEB9FE3883920F0803E38F0D9
:100C600021968F770E941104E4EBF0E004C00E940B
:100C70001104E1EEF0E00E94C8068B01BE01EC0118
:100C8000FB2E6F5771097595771F880B990B0E9482
:100C9000270528E132E741E35FE30E946E06AF2DAE
:100CA0009801AE01FF900F911F91CF91DF910E94AB
:100CB00028040C94B9050E946E060C94B9050E9494
:100CC000AB0538F00E94B20520F0952311F00C948A
:100CD00079050C94A80511240C9405060E94CA05F8
:100CE00070F3959FC1F3950F50E0551F629FF0017F
:100CF000729FBB27F00DB11D639FAA27F00DB11D98
:100D0000AA1F649F6627B00DA11D661F829F222720
:100D1000B00DA11D621F739FB00DA11D621F839FA7
:100D2000A00D611D221F749F3327A00D611D231F7D
:100D3000849F600D211D822F762F6A2F11249F57CB
:100D400050409AF0F1F088234AF0EE0FFF1FBB1FCE
:100D5000661F771F881F91505040A9F79E3F51058D
:100D600080F00C9479050C9405065F3FE4F3983EFF
:100D7000D4F3869577956795B795F795E7959F5F37
:100D8000C1F7FE2B880F911D9695879597F90895C9
:100D9000DF93CF931F930F93FF92EF92DF927B012C
:100DA0008C01689406C0DA2EEF010E946E06FE01E7
:100DB000E894A5912591359145915591A6F3EF01C0
:100DC0000E942804FE019701A801DA9469F7DF90D8
:100DD000EF90FF900F911F91CF91DF91089597FBB6
:100DE000072E16F4009407D077FD09D00E94030760
:100DF00007FC05D03EF4909581959F4F089570951E
:100E000061957F4F0895AA1BBB1B51E107C0AA1F24
:100E1000BB1FA617B70710F0A61BB70B881F991F9B
:100E20005A95A9F780959095BC01CD010895FB01D5
:100E3000DC018D91019080190110D9F3990B08956F
:100E4000FB01DC0101900D920020E1F70895F89478
:020E5000FFCFD2
:100E52002020202020202047726F757020342047E8
:100E6200726F757020342047726F7570203420477E
:100E7200726F757020342000000000000000000036
:100E82000000000000000000002020202020202080
:100E92002020202020202020200020202020202070
:100EA200202020200D0020460D000D0A45455052FD
:100EB2004F4D20577269746520616E6420526561DE
:100EC200642E000D0A000D0A496E76616C69642079
:100ED200436F6D6D616E6420547279204167616960
:100EE2006E2E2E2E000D0A52656164793A20000D95
:100EF2000A4D656E753A20284C2943442C2028411E
:100F02002943442C202845294550524F4D0D0A00B3
:100F12000D0A627920457567656E6520526F636BB5
:100F2200657920436F707972696768742032303155
:100F3200382C20416C6C20526967687473205265AA
:100F4200736572766564000D0A4543452D3431326E
:100F52002041544D656761333238502054696E79AF
:040F6200204F5300C9
:00000001FF
