S00E000054696E794F532E73726563D0
S11300000C9487000C94A4000C94A4000C94A400F9
S11300100C94A4000C94A4000C94A4000C94A400CC
S11300200C94A4000C94A4000C94A4000C94A400BC
S11300300C94A4000C94A4000C94A4000C94A400AC
S11300400C94A4000C94A4000C94A4000C94A4009C
S11300500C94A4000C94A4000C94A4000C94A4008C
S11300600C94A4000C94A4000C94A4000C94A4007C
S11300700C94A4000C94A4000C94A4000C94A4006C
S11300800C94A4000C94A4000C94A4000C94A4005C
S11300900C94A4000C94A4000C94A4000C94A4004C
S11300A00C94A4000C94A4000C94A4000C94A4003C
S11300B00C94A40008000000BE922449123EABAA8E
S11300C0AA2ABECDCCCC4C3E00000080BEABAAAA6E
S11300D0AA3E00000000BF000000803F00000000B6
S11300E000084178D3BB4387D1133D190E3CC3BDEF
S11300F04282AD2B3E68EC8276BED98FE1A93E4C9C
S113010080EFFFBE01C4FF7F3F0000000000112408
S11301101FBECFEFD8E0DEBFCDBF11E0A0E0B1E05D
S1130120E0E6FBE002C005900D92A23DB107D9F7CD
S113013021E0A2EDB1E001C01D92AF3DB207E1F7AD
S11301400E948C020C94AE050C94000007E004B9E4
S113015000E005B901B910E007E61093C50000936B
S1130160C40008E10093C10006E00093C20007E860
S113017000937A0000E400937C0007E000937B0086
S11301800EEF00937E000FEF00937F0008950E940E
S113019004010FEF0AB90091D2010BB904E005B9CB
S11301A00E94D90000E005B90E94D9000E94FE0017
S11301B008950AEF1FEF1A95F1F70A95D9F70895F4
S11301C00E9404010FEF0AB90091D2010BB906E0B5
S11301D005B90E94D90000E005B90E94D9000E9427
S11301E0FE0008950E94040100E00AB945B80BB16D
S11301F00093D20105B80E94FE00089502E00AB9F6
S113020008E10093C100089500E00093C10008953F
S11302100091C00007FF08950091C600F9CF009136
S1130220C00007FFFCCF0091C6000093D4010895DD
S11302300091C6000093D40108951091C00015FFE9
S1130240FCCF0091D4010093C600089507EE0093FB
S11302507A0000917A0006FDFCCF009178000093AB
S1130260DA01009179000093D3010895F999FECF42
S113027020E015E006E422BD11BD00BDFA9AF99A0A
S11302800895F999FECF20E015E000E022BD11BDEC
S1130290F89A00B50093D4010895CF93DF93EC014D
S11302A08991882329F08093D4010E941D01F8CFFD
S11302B0DF91CF910895CF93DF93EC018991882347
S11302C029F08093D2010E94E000F8CFDF91CF9112
S11302D0089585EB91E00E944D018EE791E00E9424
S11302E04D0183E591E00C944D018DE591E00C9472
S11302F04D0184E38093D2010E94C70088E080937B
S1130300D2010E94C70082E08093D2010E94C700FC
S113031086E08093D2010E94C7008FE08093D201CF
S11303200E94C70085E091E00C945B018F929F923C
S1130330AF92BF92CF92DF92EF92FF9281E090E072
S11303409093DE018093DD010E9426016091D30128
S113035070E0762F66278091DA01680F711D709323
S1130360DC016093DB01072E000C880B990B0E94C3
S1130370AE036B017C0120E030E44CE156E40E94C2
S1130380E2044B015C01A701960160E070E080E8A3
S113039094E40E9497029B01AC01C501B4010E9440
S11303A0040320E030E44CE156E40E9404030E947C
S11303B09A042CE53FEA43E953E40E94E20420E076
S11303C030EE46E755E40E9498029B01AC016CEBC9
S11303D07BE68EE899E40E94040323E333E948E8CA
S11303E053E40E94970226E636E646EE5FE30E9457
S11303F0E20420E030E040E052E40E9498020E94CF
S1130400E9030E947603CB0164E670E00E9476055E
S113041020E3260F6AE070E00E947605605D805D4F
S1130420203309F420E22093D5016093D601809310
S1130430D70187EA8093D8011092D90165ED71E064
S113044080E091E00E949E05892B71F085ED91E09A
S11304500E944D0183E191E00E944D0165ED71E040
S113046080E091E00E94A7050E9418018091D401C8
S1130470883721F41092DE011092DD01FF90EF9095
S1130480DF90CF90BF90AF909F908F90089588E1B8
S113049091E00E944D0181E391E00E944D010E9490
S11304A0360181E391E00E944D010E9441010E94C6
S11304B01D0181E391E00C944D018091DD01909147
S11304C0DE01892B69F48DE591E00E944D011092C3
S11304D0D4018091D401811106C00E940F01F9CF8B
S11304E081E68093D4018091D401853661F020F4B3
S11304F0813659F40C9496018C3619F0883759F0EA
S113050004C00C9479010C94470284E391E00E94A6
S11305104D010C94750108950E94A6000E94690182
S11305201092DE011092DD010E945D02FDCF505851
S1130530BB27AA270E94AF020C9440040E943204F5
S113054038F00E94390420F039F49F3F19F426F45E
S11305500C942F040EF4E095E7FB0C940004E92FAF
S11305600E94510458F3BA1762077307840795076A
S113057020F079F4A6F50C948B040EF4E0950B2E80
S1130580BA2FA02D0B01B90190010C01CA01A001E1
S11305901124FF27591B99F0593F50F4503E68F13C
S11305A01A16F040A22F232F342F4427585FF3CF7D
S11305B0469537952795A795F0405395C9F77EF44E
S11305C01F16BA0B620B730B840BBAF09150A1F097
S11305D0FF0FBB1F661F771F881FC2F70EC0BA0F1D
S11305E0621F731F841F48F4879577956795B795A5
S11305F0F7959E3F08F0B0CF9395880F08F09927A0
S1130600EE0F9795879508950E9418030C94400463
S11306100E94390458F00E94320440F029F45F3FEC
S113062029F00C94000451110C948C040C942F04A4
S11306300E94510468F39923B1F3552391F3951B58
S1130640550BBB27AA2762177307840738F09F5FEF
S11306505F4F220F331F441FAA1FA9F335D00E2E5C
S11306603AF0E0E832D091505040E695001CCAF7C9
S11306702BD0FE2F29D0660F771F881FBB1F26178C
S113068037074807AB07B0E809F0BB0B802DBF0163
S1130690FF2793585F4F3AF09E3F510578F00C9432
S11306A000040C948C045F3FE4F3983ED4F38695E5
S11306B077956795B795F7959F5FC9F7880F911D53
S11306C09695879597F90895E1E0660F771F881F3F
S11306D0BB1F621773078407BA0720F0621B730BF2
S11306E0840BBA0BEE1F88F7E09508950E947D03F2
S11306F06894B1110C948C0408950E94590488F0F4
S11307009F5798F0B92F9927B751B0F0E1F0660FD1
S1130710771F881F991F1AF0BA95C9F714C0B13012
S113072091F00E948B04B1E008950C948B04672F20
S1130730782F8827B85F39F0B93FCCF38695779541
S11307406795B395D9F73EF490958095709561952A
S11307507F4F8F4F9F4F0895E89409C097FB3EF455
S113076090958095709561957F4F8F4F9F4F9923FA
S1130770A9F0F92F96E9BB279395F6958795779578
S11307806795B795F111F8CFFAF4BB0F11F460FF38
S11307901BC06F5F7F4F8F4F9F4F16C0882311F090
S11307A096E911C0772321F09EE8872F762F05C0A4
S11307B0662371F096E8862F70E060E02AF09A953F
S11307C0660F771F881FDAF7880F9695879597F934
S11307D008950E94730490F09F3748F4911116F025
S11307E00C948C0460E070E080E89FEB089526F49C
S11307F01B16611D711D811D0C9406040C942104AB
S113080097F99F6780E870E060E00895882371F4A9
S1130810772321F09850872B762F07C0662311F495
S113082099270DC09051862B70E060E02AF09A95CC
S1130830660F771F881FDAF7880F9695879597F9C3
S113084008959F3F31F0915020F4879577956795EF
S1130850B795880F911D9695879597F908959FEF01
S113086080EC089500240A94161617061806090643
S1130870089500240A941216130614060506089512
S1130880092E0394000C11F4882352F0BB0F40F49A
S1130890BF2B11F460FF04C06F5F7F4F8F4F9F4FDA
S11308A0089557FD9058440F551F59F05F3F71F05C
S11308B04795880F97FB991F61F09F3F79F08795C3
S11308C00895121613061406551FF2CF4695F1DF4C
S11308D008C0161617061806991FF1CF86957105DC
S11308E06105089408950E945904A0F0BEE7B91761
S11308F088F4BB279F3860F41616B11D672F782F34
S11309008827985FF7CF869577956795B11D93955E
S11309109639C8F30895E894BB2766277727CB0157
S113092097F9089516F00C9421040C942F046894FC
S11309300C9400040E945904A8F39923C1F3AEF364
S1130940DF93CF931F930F93FF92C92FDD27882343
S11309502AF02197660F771F881FDAF720E030E02E
S113096040E85FEB9FE3883920F0803E38F0219621
S11309708F770E949802E4EBF0E004C00E94980292
S1130980E1EEF0E00E944F058B01BE01EC01FB2E6D
S11309906F5771097595771F880B990B0E94AE03E9
S11309A028E132E741E35FE30E94F504AF2D9801AB
S11309B0AE01FF900F911F91CF91DF910E94AF0282
S11309C00C9440040E94F5040C9440040E943204E8
S11309D038F00E94390420F0952311F00C9400049F
S11309E00C942F0411240C948C040E94510470F371
S11309F0959FC1F3950F50E0551F629FF001729FC0
S1130A00BB27F00DB11D639FAA27F00DB11DAA1FCE
S1130A10649F6627B00DA11D661F829F2227B00D1B
S1130A20A11D621F739FB00DA11D621F839FA00DA6
S1130A30611D221F749F3327A00D611D231F849FF6
S1130A40600D211D822F762F6A2F11249F5750404D
S1130A509AF0F1F088234AF0EE0FFF1FBB1F661FC8
S1130A60771F881F91505040A9F79E3F510580F091
S1130A700C9400040C948C045F3FE4F3983ED4F38C
S1130A80869577956795B795F795E7959F5FC1F735
S1130A90FE2B880F911D9695879597F90895DF93FE
S1130AA0CF931F930F93FF92EF92DF927B018C0100
S1130AB0689406C0DA2EEF010E94F504FE01E89462
S1130AC0A5912591359145915591A6F3EF010E9489
S1130AD0AF02FE019701A801DA9469F7DF90EF9065
S1130AE0FF900F911F91CF91DF91089597FB072EEF
S1130AF016F4009407D077FD09D00E948A0507FCFC
S1130B0005D03EF4909581959F4F08957095619519
S1130B107F4F0895AA1BBB1B51E107C0AA1FBB1F2F
S1130B20A617B70710F0A61BB70B881F991F5A9575
S1130B30A9F780959095BC01CD010895FB01DC01D6
S1130B408D91019080190110D9F3990B0895FB013F
S1130B50DC0101900D920020E1F70895F894FFCF95
S1130B60202020202048656C6C6F2045434534319B
S1130B7032210020460A0D000D0A454550524F4DC2
S1130B8020577269746520616E6420526561642E19
S1130B90000D0A000D0A496E76616C696420436F8A
S1130BA06D6D616E642054727920416761696E2EA7
S1130BB02E2E000D0A52656164793A20000D0A4D0B
S1130BC0656E753A20284C2943442C20284129433A
S1130BD0442C202845294550524F4D0D0A000D0A3A
S1130BE0627920457567656E6520526F636B657920
S1130BF020436F7079726967687420323031382C01
S1130C0020416C6C20526967687473205265736567
S1130C1072766564000D0A4543452D343132204116
S1130C20544D656761333238502054696E79204FD2
S1050C3053006B
S9030000FC
