:100000000C9487000C94A4000C94A4000C94A400FD
:100010000C94A4000C94A4000C94A4000C94A400D0
:100020000C94A4000C94A4000C94A4000C94A400C0
:100030000C94A4000C94A4000C94A4000C94A400B0
:100040000C94A4000C94A4000C94A4000C94A400A0
:100050000C94A4000C94A4000C94A4000C94A40090
:100060000C94A4000C94A4000C94A4000C94A40080
:100070000C94A4000C94A4000C94A4000C94A40070
:100080000C94A4000C94A4000C94A4000C94A40060
:100090000C94A4000C94A4000C94A4000C94A40050
:1000A0000C94A4000C94A4000C94A4000C94A40040
:1000B0000C94A40008000000BE922449123EABAA92
:1000C000AA2ABECDCCCC4C3E00000080BEABAAAA72
:1000D000AA3E00000000BF000000803F00000000BA
:1000E00000084178D3BB4387D1133D190E3CC3BDF3
:1000F0004282AD2B3E68EC8276BED98FE1A93E4CA0
:1001000080EFFFBE01C4FF7F3F000000000011240C
:100110001FBECFEFD8E0DEBFCDBF12E0A0E0B1E060
:10012000ECEBFCE002C005900D92A630B107D9F7C8
:1001300022E0A6E0B2E001C01D92A331B207E1F7D0
:100140000E943A030C945C060C94000007E004B98A
:1001500000E005B901B910E007E61093C50000936F
:10016000C40008E10093C10006E00093C20007E864
:1001700000937A0000E400937C0007E000937B008A
:100180000EEF00937E000FEF00937F0008950E9412
:1001900004010FEF0AB9009106020BB904E005B99A
:1001A0000E94D90000E005B90E94D9000E94FE001B
:1001B00008950AEF1FEF1A95F1F70A95D9F70895F8
:1001C0000E9404010FEF0AB9009106020BB906E084
:1001D00005B90E94D90000E005B90E94D9000E942B
:1001E000FE0008950E94040100E00AB945B80BB171
:1001F0000093060205B80E94FE00089502E00AB9C5
:1002000008E10093C100089500E00093C100089543
:100210000091C00007FF08950091C600F9CF00913A
:10022000C00007FFFCCF0091C600009308020895AC
:100230000091C6000093080208951091C00015FFB8
:10024000FCCF009108020093C600089507EE0093CA
:100250007A0000917A0006FDFCCF009178000093AF
:100260000E0200917900009307020895F999FECFDC
:1002700020E015E006E422BD11BD00BDFA9AF99A0E
:100280000895F999FECF20E015E000E022BD11BDF0
:10029000F89A00B5009308020895CF93DF93EC011C
:1002A0008991882329F0809308020E941D01F8CFCC
:1002B000DF91CF910895CF93DF93EC01899188234B
:1002C00029F0809306020E94E000F8CFDF91CF91E1
:1002D000089589EE91E00E944D0182EB91E00E9429
:1002E0004D0187E891E00C944D0181E991E00C9477
:1002F0004D01AF92BF92CF92DF92EF92FF920F9398
:100300001F93CF93DF937C018B01EC0109900020B8
:10031000E9F72197C81BD90BFB0101900020E9F7F1
:1003200031979F01261B370B6B01FA015901A40E6F
:10033000B51EEA15FB056CF4CF01BE010E94240630
:10034000D701A80FB91F8C91D6018D936D013196FD
:10035000F0CFF801E20FF31F1082DF91CF911F91D0
:100360000F91FF90EF90DF90CF90BF90AF900895E6
:10037000CF92DF92EF92FF920F931F93CF93DF9371
:10038000CDB7DEB761970FB6F894DEBF0FBECDBF15
:100390006C01FC0101900020E9F731978F01081BE7
:1003A000190BE12CF12C81E1E7E3F1E0DE0111967C
:1003B00001900D928A95E1F7C701B8010E942406C9
:1003C000AC01BE016F5F7F4FC6010E947901CE0173
:1003D00001960E945B010E94180189E1E816F10470
:1003E00021F08FEFE81AF80ADECF61960FB6F89485
:1003F000DEBF0FBECDBFDF91CF911F910F91FF9058
:10040000EF90DF90CF900895CF93DF93CDB7DEB715
:10041000E2970FB6F894DEBF0FBECDBF84E38093A2
:1004200006020E94C70088E0809306020E94C7006F
:1004300082E0809306020E94C70086E08093060255
:100440000E94C7008FE0809306020E94C70089E2E5
:10045000E5E0F1E0DE01119601900D928A95E1F759
:10046000FE01BA9689E0DF011D928A95E9F7CE0177
:1004700001960E94B801E2960FB6F894DEBF0FBE57
:10048000CDBFDF91CF9108958F929F92AF92BF928F
:10049000CF92DF92EF92FF9281E090E09093120270
:1004A000809311020E9426016091070270E0762F6E
:1004B000662780910E02680F711D70931002609381
:1004C0000F02072E000C880B990B0E945C046B0135
:1004D0007C0120E030E44CE156E40E9490054B01A1
:1004E0005C01A701960160E070E080E894E40E945E
:1004F00045039B01AC01C501B4010E94B20320E099
:1005000030E44CE156E40E94B2030E9448052CE519
:100510003FEA43E953E40E94900520E030EE46E7CD
:1005200055E40E9446039B01AC016CEB7BE68EE830
:1005300099E40E94B20323E333E948E853E40E94BC
:10054000450326E636E646EE5FE30E94900520E08E
:1005500030E040E052E40E9446030E9497040E946B
:100560002404CB0164E670E00E94240620E3260FF9
:100570006AE070E00E942406605D805D203309F42B
:1005800020E22093090260930A0280930B0287EA1B
:1005900080930C0210920D0269E072E080E091E01D
:1005A0000E944C06892B71F089E092E00E944D0177
:1005B00088E491E00E944D0169E072E080E091E002
:1005C0000E9455060E94180180910802883721F484
:1005D0001092120210921102FF90EF90DF90CF90D4
:1005E000BF90AF909F908F9008958CE491E00E940F
:1005F0004D0185E691E00E944D010E94360185E69D
:1006000091E00E944D010E9441010E941D0185E67A
:1006100091E00C944D018091110290911202892B6E
:1006200069F481E991E00E944D01109208028091E5
:100630000802811106C00E940F01F9CF81E6809364
:10064000080280910802853661F020F4813659F461
:100650000C9444028C3619F0883759F004C00C947D
:1006600004020C94F50288E691E00E944D010C947E
:10067000750108950E94A6000E946901109212025D
:10068000109211020E940B03FDCF5058BB27AA27DE
:100690000E945D030C94EE040E94E00438F00E9476
:1006A000E70420F039F49F3F19F426F40C94DD049C
:1006B0000EF4E095E7FB0C94AE04E92F0E94FF04D2
:1006C00058F3BA17620773078407950720F079F487
:1006D000A6F50C9439050EF4E0950B2EBA2FA02D3B
:1006E0000B01B90190010C01CA01A0011124FF27DF
:1006F000591B99F0593F50F4503E68F11A16F040DA
:10070000A22F232F342F4427585FF3CF46953795D8
:100710002795A795F0405395C9F77EF41F16BA0B9D
:10072000620B730B840BBAF09150A1F0FF0FBB1F4B
:10073000661F771F881FC2F70EC0BA0F621F731F94
:10074000841F48F4879577956795B795F7959E3FF1
:1007500008F0B0CF9395880F08F09927EE0F979582
:10076000879508950E94C6030C94EE040E94E70446
:1007700058F00E94E00440F029F45F3F29F00C9407
:10078000AE0451110C943A050C94DD040E94FF0450
:1007900068F39923B1F3552391F3951B550BBB27B0
:1007A000AA2762177307840738F09F5F5F4F220FF5
:1007B000331F441FAA1FA9F335D00E2E3AF0E0E8EC
:1007C00032D091505040E695001CCAF72BD0FE2F36
:1007D00029D0660F771F881FBB1F261737074807CA
:1007E000AB07B0E809F0BB0B802DBF01FF27935882
:1007F0005F4F3AF09E3F510578F00C94AE040C9494
:100800003A055F3FE4F3983ED4F386957795679574
:10081000B795F7959F5FC9F7880F911D96958795B6
:1008200097F90895E1E0660F771F881FBB1F6217D5
:1008300073078407BA0720F0621B730B840BBA0B93
:10084000EE1F88F7E09508950E942B046894B1117B
:100850000C943A0508950E94070588F09F5798F078
:10086000B92F9927B751B0F0E1F0660F771F881FB5
:10087000991F1AF0BA95C9F714C0B13091F00E94CF
:100880003905B1E008950C943905672F782F882732
:10089000B85F39F0B93FCCF3869577956795B395F6
:1008A000D9F73EF490958095709561957F4F8F4F65
:1008B0009F4F0895E89409C097FB3EF4909580956A
:1008C000709561957F4F8F4F9F4F9923A9F0F92F16
:1008D00096E9BB279395F695879577956795B79594
:1008E000F111F8CFFAF4BB0F11F460FF1BC06F5F7A
:1008F0007F4F8F4F9F4F16C0882311F096E911C08C
:10090000772321F09EE8872F762F05C0662371F0AC
:1009100096E8862F70E060E02AF09A95660F771FC0
:10092000881FDAF7880F9695879597F908950E94A2
:10093000210590F09F3748F4911116F00C943A0578
:1009400060E070E080E89FEB089526F41B16611DBF
:10095000711D811D0C94B4040C94CF0497F99F670A
:1009600080E870E060E00895882371F4772321F037
:100970009850872B762F07C0662311F499270DC056
:100980009051862B70E060E02AF09A95660F771FF1
:10099000881FDAF7880F9695879597F908959F3FF6
:1009A00031F0915020F4879577956795B795880F2A
:1009B000911D9695879597F908959FEF80EC08957E
:1009C00000240A941616170618060906089500242E
:1009D0000A9412161306140605060895092E0394A8
:1009E000000C11F4882352F0BB0F40F4BF2B11F41C
:1009F00060FF04C06F5F7F4F8F4F9F4F089557FD7B
:100A00009058440F551F59F05F3F71F04795880F7C
:100A100097FB991F61F09F3F79F087950895121613
:100A200013061406551FF2CF4695F1DF08C01616BF
:100A300017061806991FF1CF869571056105089470
:100A400008950E940705A0F0BEE7B91788F4BB27F8
:100A50009F3860F41616B11D672F782F8827985F8E
:100A6000F7CF869577956795B11D93959639C8F31D
:100A70000895E894BB2766277727CB0197F9089557
:100A800016F00C94CF040C94DD0468940C94AE041E
:100A90000E940705A8F39923C1F3AEF3DF93CF9328
:100AA0001F930F93FF92C92FDD2788232AF02197E8
:100AB000660F771F881FDAF720E030E040E85FEB31
:100AC0009FE3883920F0803E38F021968F770E948E
:100AD0004603E4EBF0E004C00E944603E1EEF0E0E0
:100AE0000E94FD058B01BE01EC01FB2E6F577109C1
:100AF0007595771F880B990B0E945C0428E132E7FB
:100B000041E35FE30E94A305AF2D9801AE01FF9082
:100B10000F911F91CF91DF910E945D030C94EE0421
:100B20000E94A3050C94EE040E94E00438F00E9499
:100B3000E70420F0952311F00C94AE040C94DD042E
:100B400011240C943A050E94FF0470F3959FC1F3A1
:100B5000950F50E0551F629FF001729FBB27F00D6B
:100B6000B11D639FAA27F00DB11DAA1F649F6627C0
:100B7000B00DA11D661F829F2227B00DA11D621F0F
:100B8000739FB00DA11D621F839FA00D611D221FC9
:100B9000749F3327A00D611D231F849F600D211DAD
:100BA000822F762F6A2F11249F5750409AF0F1F030
:100BB00088234AF0EE0FFF1FBB1F661F771F881F99
:100BC00091505040A9F79E3F510580F00C94AE041F
:100BD0000C943A055F3FE4F3983ED4F386957795FD
:100BE0006795B795F795E7959F5FC1F7FE2B880F3F
:100BF000911D9695879597F90895DF93CF931F934D
:100C00000F93FF92EF92DF927B018C01689406C0F4
:100C1000DA2EEF010E94A305FE01E894A59125912B
:100C2000359145915591A6F3EF010E945D03FE01B8
:100C30009701A801DA9469F7DF90EF90FF900F9188
:100C40001F91CF91DF91089597FB072E16F4009422
:100C500007D077FD09D00E94380607FC05D03EF486
:100C6000909581959F4F0895709561957F4F089558
:100C7000AA1BBB1B51E107C0AA1FBB1FA617B707C2
:100C800010F0A61BB70B881F991F5A95A9F78095DE
:100C90009095BC01CD010895FB01DC018D9101907F
:100CA00080190110D9F3990B0895FB01DC01019023
:0C0CB0000D920020E1F70895F894FFCFAA
:100CBC00202020202047726F75702034206973200B
:100CCC0074686520626573742067726F7570206933
:100CDC006E2074686520776F726C642E20000000A3
:100CEC0000000000000000202020202020202020D8
:100CFC00202020202020200020460D000D0A4545F4
:100D0C0050524F4D20577269746520616E642052A9
:100D1C006561642E000D0A000D0A496E76616C69DE
:100D2C006420436F6D6D616E64205472792041674D
:100D3C0061696E2E2E2E000D0A52656164793A207F
:100D4C00000D0A4D656E753A20284C2943442C2021
:100D5C0028412943442C202845294550524F4D0DFC
:100D6C000A000D0A627920457567656E6520526F21
:100D7C00636B657920436F70797269676874203290
:100D8C003031382C20416C6C2052696768747320A8
:100D9C005265736572766564000D0A4543452D34C2
:100DAC0031322041544D65676133323850205469DB
:060DBC006E79204F530088
:00000001FF
