:100000000C945A000C9477000C9477000C947700B1
:100010000C9477000C9477000C9477000C94770084
:100020000C9477000C9477000C9477000C94770074
:100030000C9477000C9477000C9477000C94770064
:100040000C9477000C9477000C9477000C94770054
:100050000C9477000C9477000C9477000C94770044
:100060000C9477000C9477000C9477000C94770034
:100070000C9477000C9477000C9477000C94770024
:100080000C9477000C9477000C9477000C94770014
:100090000C9477000C9477000C9477000C94770004
:1000A0000C9477000C9477000C9477000C947700F4
:1000B0000C94770011241FBECFEFD8E0DEBFCDBF78
:1000C00016E0A0E0B1E0E0EAF7E002C005900D9292
:1000D000A63FB107D9F727E0A6EFB6E001C01D9211
:1000E000A830B207E1F70E949F030C94CE030C9452
:1000F000000007E004B900E005B901B910E007E627
:100100001093C5000093C40008E10093C10006E00D
:100110000093C20007E800937A0000E400937C009B
:1001200000E000937B000EEF00937E000FEF009342
:100130007F0008950E94D7000FEF0AB90091F606DC
:100140000BB904E005B90E94AC0000E005B90E94BB
:10015000AC000E94D10008950AEF1FEF1A95F1F745
:100160000A95D9F708950E94D7000FEF0AB90091B8
:10017000F6060BB906E005B90E94AC0000E005B92F
:100180000E94AC000E94D10008950E94D70000E0B8
:100190000AB945B80BB10093F60605B80E94D10024
:1001A000089502E00AB908E10093C100089500E053
:1001B0000093C10008950091C00007FF08950091C9
:1001C000C600F9CF0091C00007FFFCCF0091C60028
:1001D0000093F90608951091C00015FFFCCF00911F
:1001E000F9060093C600089507EC00937A00009189
:1001F0007A0006FDFCCF0091780000930207009181
:1002000079000093F7060895F999FECF209103072E
:100210001091F8060091FA0622BD11BD00BDFA9AB0
:10022000F99A0895F999FECF209103071091F806E5
:1002300000E022BD11BDF89A00B50093F9060895BB
:1002400001B910E00FEC1093C5000093C4000895AD
:1002500001B910E007E61093C5000093C4000895AB
:1002600001B910E004E41093C5000093C4000895A0
:1002700001B910E004E41093C5000093C400089590
:1002800001B910E009E11093C5000093C40008957E
:1002900001B910E000E11093C5000093C400089577
:1002A000CF93DF93EC019881992341F021969093AD
:1002B000F9060E94EB0099919111F9CFDF91CF914E
:1002C0000895CF93DF93EC019881992341F0219613
:1002D0009093F6060E94B30099919111F9CFDF91A6
:1002E000CF91089589ED96E00E94500182EA96E050
:1002F0000E9450018EE696E00E945001089588E722
:1003000096E00E945001089584E38093F6060E94CF
:100310009A0088E08093F6060E949A0082E080931B
:10032000F6060E949A0086E08093F6060E949A00E4
:100330008FE08093F6060E949A0080E091E00E9490
:1003400061010895CF93DF93CDEFD6E08EE28983EC
:1003500080E28B831C820E94F4002091F70630E03B
:10036000322F222780910207280F311DC901880FE3
:10037000991F220F331F220F331F220F331F820FAB
:10038000931FEEEFF7E0BF010E94A603262F30E394
:10039000360F3883AC01440F551F880F991F880F03
:1003A000991F880F991F840F951FBF010E94A603F4
:1003B00030E3360F3A8390930507809304078F3F0D
:1003C00093401CF06F5C6093FF068091FF068A33B8
:1003D00031F4EDEFF6E080E382832F5C20838DEF34
:1003E00096E00E94500188E496E00E945001DF915F
:1003F000CF9108958EE091E00E9450011092F9068D
:100400000E94E2008091F9068823D1F380930307CC
:100410008CE491E00E9450011092F9060E94E200E3
:100420008091F9068823D1F38093F8060E94120187
:1004300008958AE891E00E9450011092F9060E9406
:10044000E2008091F9068823D1F38093030787ECBB
:1004500091E00E9450011092F9060E94E200809102
:10046000F9068823D1F38093F80684E092E00E9495
:1004700050011092F9060E94E2008091F90688234B
:10048000D1F38093FA060E94040183E292E00E9475
:100490005001089589E692E00E9450011092F906F9
:1004A0000E94E2008091F9068823D1F3823719F087
:1004B000873721F006C00E94FA0108950E941902B0
:1004C00008958FE496E00E94500108958DE792E030
:1004D0000E9450018EE992E00E9450011092F906AC
:1004E0000E94E2008091F9068823D1F38333D1F092
:1004F00028F4813349F0823371F030C0853301F143
:10050000C0F0863321F12AC082ED92E00E945001B2
:100510000E94200108958AEF92E00E9450010E94FB
:100520002801089582E293E00E9450010E94300168
:1005300008958BE493E00E9450010E9438010895D1
:1005400084E793E00E9450010E94400108958DE9E4
:1005500093E00E9450010E94480108958FE496E0C4
:100560000E945001089586EC93E00E945001109281
:10057000F9060E94E2008091F9068823D1F38733BF
:10058000A9F028F4853341F0863359F039C0883317
:1005900091F08933F1F034C083EF93E00E94500171
:1005A00008958EE194E00E945001089589E494E05A
:1005B0000E94500108958091FB069091FC06816095
:1005C0009093FC068093FB0684E794E00E94500120
:1005D00008958091FB069091FC0681609093FC0643
:1005E0008093FB06809106079091070784609093A3
:1005F0000707809306078FE994E00E945001089551
:100600008FE496E00E94500108958AEC94E00E94E5
:1006100050011092F9060E94E2008091F9068823A9
:10062000D1F3823349F08333A9F08133C1F483EFEE
:1006300094E00E94500108958091FB069091FC0681
:1006400081609093FC068093FB0686E095E00E9413
:10065000500108958DE195E00E94500108958FE4C6
:1006600096E00E945001089585E395E00E945001B4
:100670001092F9060E94E2008091F9068823D1F3D6
:10068000813319F0823379F013C08091FB06909189
:10069000FC0688609093FC068093FB0684E695E058
:1006A0000E945001089583E895E00E94500108954A
:1006B0008FE496E00E945001089583E296E00E9444
:1006C00050010E94660284EF95E00E9450010E9452
:1006D000B30282ED95E00E9450010E94050383EA77
:1006E00095E00E9450010E943403089588E796E047
:1006F0000E9450011092F9060E94E2008091F906D2
:100700008823D1F3853679F018F4813649F010C08A
:100710008C3619F0853751F00BC00E948401089582
:100720000E94A20108950E944A0208950E945D035A
:100730008FE496E00E9450010E947F0108950E947C
:1007400079000E9472010E947603FDCF97FB072E6D
:1007500016F4009407D077FD09D00E94BA0307FC75
:1007600005D03EF4909581959F4F089570956195C1
:100770007F4F0895AA1BBB1B51E107C0AA1FBB1FD7
:10078000A617B70710F0A61BB70B881F991F5A951D
:10079000A9F780959095BC01CD010895F894FFCFFD
:1007A00048656C6C6F2045434534313221000A4561
:1007B0006E74657220746865207570706572206251
:1007C0006974206F6620612076616C6964204545FC
:1007D00050524F4D206164647265737320746F20B2
:1007E000726561642066726F6D3A20000A456E740E
:1007F000657220746865206C6F7765722062697419
:10080000206F6620612076616C69642045455052F6
:100810004F4D206164647265737320746F2072653C
:1008200061642066726F6D3A20000A456E746572CD
:100830002074686520757070657220626974206F1D
:100840006620612076616C696420454550524F4DA9
:10085000206164647265737320746F2077726974A9
:100860006520746F3A20000A456E746572207468C2
:1008700065206C6F77657220626974206F662061F5
:100880002076616C696420454550524F4D2061646B
:10089000647265737320746F207772697465207455
:1008A0006F3A20000A456E74657220746865206492
:1008B00061746120746F2062652073746F72656467
:1008C0003A20000A5468652064617461206861738D
:1008D000206265656E207375636365737366756CFE
:1008E0006C79207772697474656E20746F207468F7
:1008F00065206465736972656420454550524F4DAB
:100900002061646472657373000D0A285229656161
:1009100064206F722028572972697465000A57682D
:1009200061742042617564205261746520776F752F
:100930006C6420796F75206C696B653F0A00283103
:1009400029343830300A283229393630300A2833F1
:100950002931343430300A28342931393230300AE0
:1009600028352933383430300A283629353736309F
:1009700030000A426175642072617465207375638A
:100980006365737366756C6C79206368616E676507
:100990006420746F2034383030000A42617564205E
:1009A00072617465207375636365737366756C6CCF
:1009B00079206368616E67656420746F2039363012
:1009C00030000A426175642072617465207375633A
:1009D0006365737366756C6C79206368616E6765B7
:1009E0006420746F203134343030000A4261756401
:1009F0002072617465207375636365737366756CCB
:100A00006C79206368616E67656420746F2031398A
:100A1000323030000A42617564207261746520735F
:100A200075636365737366756C6C79206368616E5A
:100A300067656420746F203338343030000A4261B7
:100A40007564207261746520737563636573736682
:100A5000756C6C79206368616E67656420746F20C3
:100A60003537363030000A486F77206D616E792057
:100A700064617461206269747320617265206465C9
:100A800073697265643F2028352C362C372C382C3E
:100A90003929000A4E756D626572206F66206461A7
:100AA0007461206269747320686173206265656E89
:100AB000206368616E67656420746F2035000A4E9C
:100AC000756D626572206F66206461746120626971
:100AD000747320686173206265656E206368616E5F
:100AE00067656420746F2036000A4E756D6265720A
:100AF000206F66206461746120626974732068618C
:100B000073206265656E206368616E67656420743A
:100B10006F2037000A4E756D626572206F66206423
:100B20006174612062697473206861732062656515
:100B30006E206368616E67656420746F2038000AF8
:100B40004E756D626572206F66206461746120620B
:100B500069747320686173206265656E20636861E3
:100B60006E67656420746F2039000A53656C656395
:100B7000742061207061726974793A0A2831294EB3
:100B80006F6E650A2832294F64640A283329457636
:100B9000656E000A4E6F207061726974792077610A
:100BA0007320736574000A416E206F646420706165
:100BB000726974792077617320736574000A416EDD
:100BC000206576656E207061726974792077617333
:100BD00020736574000A53656C65637420686F77D1
:100BE000206D616E792073746F7020626974732058
:100BF00061726520646573697265643A2031206FA3
:100C0000722032000A4F6E652073746F7020626923
:100C1000742077696C6C2062652070726F766964ED
:100C20006564000A54776F2073746F702062697472
:100C3000732077696C6C2062652070726F766964CE
:100C4000656400506C6561736520496E7075742031
:100C50007468652044657369726564204E756D62C1
:100C60006572206F662053746F7020426974733A06
:100C70002000506C6561736520496E707574207436
:100C80006865204465736972656420506172697497
:100C9000793A2000506C6561736520496E707574F7
:100CA000207468652044657369726564204E756DB3
:100CB000626572206F6620446174612042697473BA
:100CC0003A2000506C6561736520496E7075742020
:100CD0007468652044657369726564204261756457
:100CE00020526174653A2000566F6C74730D000DCC
:100CF0000A496E76616C696420436F6D6D616E6444
:100D00002054727920416761696E2E2E2E000D0AE3
:100D100052656164793A20000D0A4D656E753A207E
:100D2000284C2943442C2028412943442C20284581
:100D3000294550524F4D2C20285529534152540DCE
:100D40000A000D0A627920457567656E6520526F4D
:100D5000636B657920436F707972696768742032BC
:100D60003031382C20416C6C2052696768747320D4
:100D70005265736572766564000D0A4543452D34EE
:100D800031322041544D6567613332385020546907
:060D90006E79204F5300B4
:00000001FF
