S00E000054696E794F532E73726563D0
S11300000C945A000C9477000C9477000C947700AD
S11300100C9477000C9477000C9477000C94770080
S11300200C9477000C9477000C9477000C94770070
S11300300C9477000C9477000C9477000C94770060
S11300400C9477000C9477000C9477000C94770050
S11300500C9477000C9477000C9477000C94770040
S11300600C9477000C9477000C9477000C94770030
S11300700C9477000C9477000C9477000C94770020
S11300800C9477000C9477000C9477000C94770010
S11300900C9477000C9477000C9477000C94770000
S11300A00C9477000C9477000C9477000C947700F0
S11300B00C94770011241FBECFEFD8E0DEBFCDBF74
S11300C017E0A0E0B1E0E0EBF7E002C005900D928C
S11300D0A032B107D9F727E0A0E2B7E001C01D9232
S11300E0A833B207E1F70E94A7030C94D6030C943B
S11300F0000007E004B900E005B901B910E007E623
S11301001093C5000093C40008E10093C10006E009
S11301100093C20007E800937A0000E400937C0097
S113012007E000937B000EEF00937E000FEF009337
S11301307F0008950E94D7000FEF0AB900912107AC
S11301400BB904E005B90E94AC0000E005B90E94B7
S1130150AC000E94D10008950AEF1FEF1A95F1F741
S11301600A95D9F708950E94D7000FEF0AB90091B4
S113017021070BB906E005B90E94AC0000E005B9FF
S11301800E94AC000E94D10008950E94D70000E0B4
S11301900AB945B80BB10093210705B80E94D100F4
S11301A0089502E00AB908E10093C100089500E04F
S11301B00093C10008950091C00007FF08950091C5
S11301C0C600F9CF0091C00007FFFCCF0091C60024
S11301D00093260708950091C6000093260708950A
S11301E01091C00015FFFCCF009126070093C600B4
S11301F0089507EE00937A0000917A0006FDFCCF83
S11302000091780000933107009179000093220750
S11302100895F999FECF20912007109129070091A4
S1130220280722BD11BD00BDFA9AF99A0895F999DB
S1130230FECF209120071091290700E022BD11BDB7
S1130240F89A00B500932607089501B91091340770
S1130250009137071093C5000093C4000895CF930D
S1130260DF93EC019881992341F02196909326071E
S11302700E94F00099919111F9CFDF91CF910895E7
S1130280CF93DF93EC019881992341F021969093C9
S113029021070E94B30099919111F9CFDF91CF9179
S11302A0089583E097E00E942F018CEC96E00E9471
S11302B02F0188E996E00E942F01089582EA96E0D2
S11302C00E942F01089584E3809321070E949A00DD
S11302D088E0809321070E949A0082E0809321079E
S11302E00E949A0086E0809321070E949A008FE082
S11302F0809321070E949A0080E091E00E944001CF
S11303000895CF93DF93CCE2D7E08EE2898380E235
S11303108B831C820E94F9002091220730E0322F47
S1130320222780913107280F311DC901880F991F99
S1130330220F331F220F331F220F331F820F931FED
S1130340EEEFF7E0BF010E94AE03262F30E3360F35
S11303503883AC01440F551F880F991F880F991FCC
S1130360880F991F840F951FBF010E94AE0330E3CD
S1130370360F3A8390933307809332078F3F93402D
S11303801CF06F5C60932E0780912E078A3331F442
S1130390ECE2F7E080E382832F5C20838CE297E039
S11303A00E942F0182E796E00E942F01DF91CF91F6
S11303B008958EE091E00E942F01109226070E947A
S11303C0E200809126078823D1F3809320078DE4EF
S11303D091E00E942F01109226070E94E200809172
S11303E026078823D1F3809329070E9417010E94CE
S11303F0F00008958CE891E00E942F0110922607E6
S11304000E94E200809126078823D1F3809320077D
S11304108AEC91E00E942F01109226070E94E200CC
S1130420809126078823D1F38093290788E092E0FE
S11304300E942F01109226070E94E2008091260755
S11304408823D1F3809328070E94090188E292E06F
S11304500E942F0108958FE692E00E942F011092CE
S113046026070E94E200809126078823D1F3823771
S113047019F0873721F006C00E94D90108950E941F
S1130480FA01089589E796E00E942F01089583E810
S113049092E00E942F0185EA92E00E942F011092BF
S11304A026070E94E200809126078823D1F3833334
S11304B021F128F4813349F0823399F04EC0853319
S11304C0A1F138F18633E9F148C080EE92E00E9450
S11304D02F01109234078FEC809337070E94250177
S11304E0089589E093E00E942F011092340787E673
S11304F0809337070E942501089582E393E00E94C8
S11305002F011092340784E4809337070E94250159
S113051008958CE593E00E942F011092340783E341
S1130520809337070E942501089586E893E00E948E
S11305302F011092340789E1809337070E94250127
S1130540089580EB93E00E942F011092340780E11C
S1130550809337070E942501089589E796E00E9459
S11305602F010E94470208958AED93E00E942F0113
S1130570109226070E94E200809126078823D1F377
S11305808733A9F028F4853341F0863359F039C014
S1130590883391F08933F1F034C088E094E00E940C
S11305A02F01089584E394E00E942F01089580E6CA
S11305B094E00E942F01089580912A0790912B07BF
S11305C0816090932B0780932A078CE894E00E9423
S11305D02F01089580912A0790912B0781609093B1
S11305E02B0780932A078091350790913607846002
S11305F0909336078093350788EB94E00E942F018F
S1130600089589E796E00E942F010E94B40208959C
S113061084EE94E00E942F01109226070E94E200CB
S1130620809126078823D1F3823349F08333A9F0DC
S11306308133C1F481E195E00E942F0108958091F6
S11306402A0790912B07816090932B0780932A07A8
S113065085E295E00E942F0108958DE395E00E94C4
S11306602F01089589E796E00E942F010E94080354
S1130670089586E595E00E942F01109226070E94B6
S1130680E200809126078823D1F3813319F0823365
S113069079F013C080912A0790912B07886090937A
S11306A02B0780932A0786E895E00E942F0108957E
S11306B086EA95E00E942F01089589E796E00E945A
S11306C02F010E94390308958DE496E00E942F01C2
S11306D00E9447028CE196E00E942F010E94B4021E
S11306E088EF95E00E942F010E94080387EC95E0B3
S11306F00E942F010E943903089582EA96E00E9425
S11307002F01109226070E94E20080912607882379
S1130710D1F3853679F018F4813649F011C08C365E
S113072019F0853751F00CC00E94630108950E94AE
S1130730810108950E942B0208950E946403089584
S113074089E796E00E942F010E945E0108950E94AD
S113075079000E9451010E947D03FDCF97FB072E73
S113076016F4009407D077FD09D00E94C20307FC59
S113077005D03EF4909581959F4F089570956195AD
S11307807F4F0895AA1BBB1B51E107C0AA1FBB1FC3
S1130790A617B70710F0A61BB70B881F991F5A9509
S11307A0A9F780959095BC01CD010895F894FFCFE9
S11307B048656C6C6F2045434534313221000D0A85
S11307C0456E74657220746865207570706572205A
S11307D0626974206F6620612076616C69642045CB
S11307E04550524F4D206164647265737320746F79
S11307F020726561642066726F6D3A20000D0A45AF
S11308006E74657220746865206C6F7765722062FF
S11308106974206F6620612076616C6964204545A7
S113082050524F4D206164647265737320746F205D
S1130830726561642066726F6D3A20000D0A456E20
S113084074657220746865207570706572206269C1
S113085074206F6620612076616C69642045455080
S1130860524F4D206164647265737320746F2077F6
S11308707269746520746F3A20000D0A456E7465C0
S11308807220746865206C6F7765722062697420C9
S11308906F6620612076616C696420454550524F33
S11308A04D206164647265737320746F207772697C
S11308B0746520746F3A20000D0A456E74657220C9
S11308C0746865206461746120746F2062652073AC
S11308D0746F7265643A20000D0A5468652064617F
S11308E0746120686173206265656E20737563634B
S11308F065737366756C6C79207772697474656E50
S113090020746F207468652064657369726564205F
S1130910454550524F4D2061646472657373000DF8
S11309200A285229656164206F7220285729726948
S11309307465000D0A576861742042617564205221
S113094061746520776F756C6420796F75206C69AC
S11309506B653F0A000D0A283129343830300D0AFE
S1130960283229393630300D0A28332931343430CD
S1130970300D0A28342931393230300D0A2835290E
S113098033383430300D0A283629353736303000C4
S11309900D0A426175642072617465207375636326
S11309A065737366756C6C79206368616E676564E2
S11309B020746F2034383030000D0A426175642091
S11309C072617465207375636365737366756C6CAB
S11309D079206368616E67656420746F20393630EE
S11309E030000D0A4261756420726174652073756C
S11309F0636365737366756C6C79206368616E6795
S1130A00656420746F203134343030000D0A426143
S1130A1075642072617465207375636365737366AE
S1130A20756C6C79206368616E67656420746F20EF
S1130A303139323030000D0A4261756420726174BC
S1130A4065207375636365737366756C6C79206375
S1130A5068616E67656420746F2033383430300009
S1130A600D0A426175642072617465207375636355
S1130A7065737366756C6C79206368616E67656411
S1130A8020746F203537363030000D0A486F7720D8
S1130A906D616E7920646174612062697473206190
S1130AA0726520646573697265643F2028352C364D
S1130AB02C372C382C3929000D0A4E756D6265725D
S1130AC0206F6620646174612062697473206861B8
S1130AD073206265656E206368616E676564207467
S1130AE06F2035000D0A4E756D626572206F6620A9
S1130AF06461746120626974732068617320626543
S1130B00656E206368616E67656420746F203600CB
S1130B100D0A4E756D626572206F662064617461A2
S1130B20206269747320686173206265656E206356
S1130B3068616E67656420746F2037000D0A4E7516
S1130B406D626572206F66206461746120626974ED
S1130B507320686173206265656E206368616E67E7
S1130B60656420746F2038000D0A4E756D626572DD
S1130B70206F662064617461206269747320686107
S1130B8073206265656E206368616E6765642074B6
S1130B906F2039000D0A53656C6563742061207001
S1130BA061726974793A0D0A2831294E6F6E650DA8
S1130BB00A2832294F64640D0A2833294576656E64
S1130BC0000D0A4E6F207061726974792077617329
S1130BD020736574000D0A416E206F646420706197
S1130BE0726974792077617320736574000D0A410A
S1130BF06E206576656E2070617269747920776104
S1130C007320736574000D0A53656C656374206802
S1130C106F77206D616E792073746F7020626974D0
S1130C20732061726520646573697265643A20316A
S1130C30206F722032000D0A4F6E652073746F703E
S1130C40206269742077696C6C2062652070726F11
S1130C507669646564000D0A54776F2073746F704D
S1130C6020626974732077696C6C206265207072ED
S1130C706F7669646564000D0A506C656173652064
S1130C80496E707574207468652044657369726573
S1130C9064204E756D626572206F662053746F70A8
S1130CA020426974733A20000D0A506C65617365C3
S1130CB020496E7075742074686520446573697288
S1130CC06564205061726974793A20000D0A506C91
S1130CD06561736520496E7075742074686520447D
S1130CE0657369726564204E756D626572206F6606
S1130CF0204461746120426974733A2000506C6529
S1130D0061736520496E707574207468652044654C
S1130D107369726564204261756420526174653A36
S1130D202000566F6C74730D000D0A496E76616C69
S1130D30696420436F6D6D616E6420547279204143
S1130D406761696E2E2E2E000D0A52656164793A30
S1130D5020000D0A4D656E753A20284C2943442C19
S1130D602028412943442C202845294550524F4DE1
S1130D702C20285529534152540D0A000D0A62793A
S1130D8020457567656E6520526F636B65792043F6
S1130D906F7079726967687420323031382C204161
S1130DA06C6C20526967687473205265736572763F
S1130DB06564000D0A4543452D3431322041544DBC
S1130DC0656761333238502054696E79204F53007F
S9030000FC
