:100000000C945A000C9477000C9477000C947700B1
:100010000C9477000C9477000C9477000C94770084
:100020000C9477000C9477000C9477000C94770074
:100030000C9477000C9477000C9477000C94770064
:100040000C9477000C9477000C9477000C94770054
:100050000C9477000C9477000C9477000C94770044
:100060000C9477000C9477000C9477000C94770034
:100070000C9477000C9477000C9477000C94770024
:100080000C9477000C9477000C9477000C94770014
:100090000C9477000C9477000C9477000C94770004
:1000A0000C9477000C9477000C9477000C947700F4
:1000B0000C94770011241FBECFEFD8E0DEBFCDBF78
:1000C00017E0A0E0B1E0E8E9F7E002C005900D928A
:1000D000A032B107D9F727E0A0E2B7E001C01D9236
:1000E000A233B207E1F70E949B030C94CA030C945D
:1000F000000007E004B900E005B901B910E007E627
:100100001093C5000093C40008E10093C10006E00D
:100110000093C20007E800937A0000E400937C009B
:1001200000E000937B000EEF00937E000FEF009342
:100130007F0008950E94D7000FEF0AB900912007B1
:100140000BB904E005B90E94AC0000E005B90E94BB
:10015000AC000E94D10008950AEF1FEF1A95F1F745
:100160000A95D9F708950E94D7000FEF0AB90091B8
:1001700020070BB906E005B90E94AC0000E005B904
:100180000E94AC000E94D10008950E94D70000E0B8
:100190000AB945B80BB10093200705B80E94D100F9
:1001A000089502E00AB908E10093C100089500E053
:1001B0000093C10008950091C00007FF08950091C9
:1001C000C600F9CF0091C00007FFFCCF0091C60028
:1001D0000093230708951091C00015FFFCCF0091F4
:1001E00023070093C600089507EC00937A0000915E
:1001F0007A0006FDFCCF0091780000932C07009157
:100200007900009321070895F999FECF20912D07D9
:10021000109122070091240722BD11BD00BDFA9A5A
:10022000F99A0895F999FECF20912D071091220790
:1002300000E022BD11BDF89A00B500932307089590
:10024000089510E007E61093C5000093C4000895D8
:1002500010E004E41093C5000093C400089510E07A
:1002600004E41093C5000093C400089510E009E170
:100270001093C5000093C400089510E000E11093AE
:10028000C5000093C4000895CF93DF93EC019881DB
:10029000992341F02196909323070E94EB009991B6
:1002A0009111F9CFDF91CF910895CF93DF93EC01B6
:1002B0009881992341F02196909320070E94B300E2
:1002C00099919111F9CFDF91CF91089583E097E053
:1002D0000E9444018CEC96E00E94440188E996E07B
:1002E0000E944401089582EA96E00E944401089524
:1002F00084E3809320070E949A0088E0809320077F
:100300000E949A0082E0809320070E949A0086E073
:10031000809320070E949A008FE0809320070E941C
:100320009A0080E091E00E9455010895CF93DF93F9
:10033000C7E2D7E08EE2898380E28B831C820E9431
:10034000F4002091210730E0322F222780912C07E2
:10035000280F311DC901880F991F220F331F220F4B
:10036000331F220F331F820F931FEEEFF7E0BF0101
:100370000E94A203262F30E3360F3883AC01440FCE
:10038000551F880F991F880F991F880F991F840F79
:10039000951FBF010E94A20330E3360F3A8390936A
:1003A0002F0780932E078F3F93401CF06F5C609364
:1003B0002907809129078A3331F4E7E2F7E080E3E7
:1003C00082832F5C208387E297E00E94440182E7CA
:1003D00096E00E944401DF91CF9108958EE091E074
:1003E0000E944401109223070E94E200809123079B
:1003F0008823D1F380932D078DE491E00E9444017E
:10040000109223070E94E200809123078823D1F3F2
:10041000809322070E94120108958CE891E00E94C7
:100420004401109223070E94E20080912307882351
:10043000D1F380932D078AEC91E00E944401109241
:1004400023070E94E200809123078823D1F3809341
:10045000220788E092E00E944401109223070E9444
:10046000E200809123078823D1F3809324070E9420
:10047000040188E292E00E94440108958FE692E030
:100480000E944401109223070E94E20080912307FA
:100490008823D1F3823719F0873721F006C00E94F4
:1004A000EE0108950E940D02089589E796E00E94EA
:1004B0004401089583E892E00E94440185EA92E0B5
:1004C0000E944401109223070E94E20080912307BA
:1004D0008823D1F38333D1F028F4813349F0823378
:1004E00071F030C0853301F1C0F0863321F12AC0AC
:1004F00080EE92E00E9444010E942001089589E06C
:1005000093E00E9444010E942101089582E393E058
:100510000E9444010E94280108958CE593E00E9406
:1005200044010E942F01089586E893E00E9444014F
:100530000E943601089580EB93E00E9444010E94DE
:100540003D01089589E796E00E9444010E945A0205
:1005500008958AED93E00E944401109223070E94BF
:10056000E200809123078823D1F38733A9F028F490
:10057000853341F0863359F039C0883391F089339F
:10058000F1F034C088E094E00E944401089584E3CF
:1005900094E00E944401089580E694E00E944401A2
:1005A00008958091250790912607816090932607F2
:1005B000809325078CE894E00E944401089580917F
:1005C0002507909126078160909326078093250741
:1005D0008091300790913107846090933107809328
:1005E000300788EB94E00E944401089589E796E083
:1005F0000E9444010E94A902089584EE94E00E94A2
:100600004401109223070E94E2008091230788236F
:10061000D1F3823349F08333A9F08133C1F481E10E
:1006200095E00E9444010895809125079091260746
:100630008160909326078093250785E295E00E94CC
:10064000440108958DE395E00E944401089589E7EF
:1006500096E00E9444010E94FD02089586E595E01F
:100660000E944401109223070E94E2008091230718
:100670008823D1F3813319F0823379F013C080914C
:100680002507909126078860909326078093250779
:1006900086E895E00E944401089586EA95E00E946C
:1006A0004401089589E796E00E9444010E942E03C8
:1006B00008958DE496E00E9444010E945A028CE164
:1006C00096E00E9444010E94A90288EF95E00E94F2
:1006D00044010E94FD0287EC95E00E9444010E94C3
:1006E0002E03089582EA96E00E94440110922307A7
:1006F0000E94E200809123078823D1F3853679F0A8
:1007000018F4813649F010C08C3619F0853751F055
:100710000BC00E94780108950E94960108950E94DE
:100720003E0208950E94590389E796E00E94440121
:100730000E94730108950E9479000E9466010E9440
:100740007203FDCF97FB072E16F4009407D077FDB8
:1007500009D00E94B60307FC05D03EF49095819520
:100760009F4F0895709561957F4F0895AA1BBB1BFD
:1007700051E107C0AA1FBB1FA617B70710F0A61BA1
:10078000B70B881F991F5A95A9F780959095BC01C2
:08079000CD010895F894FFCF9C
:1007980048656C6C6F2045434534313221000D0AA1
:1007A800456E746572207468652075707065722076
:1007B800626974206F6620612076616C69642045E7
:1007C8004550524F4D206164647265737320746F95
:1007D80020726561642066726F6D3A20000D0A45CB
:1007E8006E74657220746865206C6F77657220621C
:1007F8006974206F6620612076616C6964204545C4
:1008080050524F4D206164647265737320746F2079
:10081800726561642066726F6D3A20000D0A456E3C
:1008280074657220746865207570706572206269DD
:1008380074206F6620612076616C6964204545509C
:10084800524F4D206164647265737320746F207712
:100858007269746520746F3A20000D0A456E7465DC
:100868007220746865206C6F7765722062697420E5
:100878006F6620612076616C696420454550524F4F
:100888004D206164647265737320746F2077726998
:10089800746520746F3A20000D0A456E74657220E5
:1008A800746865206461746120746F2062652073C8
:1008B800746F7265643A20000D0A5468652064619B
:1008C800746120686173206265656E207375636367
:1008D80065737366756C6C79207772697474656E6C
:1008E80020746F207468652064657369726564207C
:1008F800454550524F4D2061646472657373000D15
:100908000A285229656164206F7220285729726964
:100918007465000D0A57686174204261756420523D
:1009280061746520776F756C6420796F75206C69C8
:100938006B653F0A000D0A283129343830300D0A1A
:10094800283229393630300D0A28332931343430E9
:10095800300D0A28342931393230300D0A2835292A
:1009680033383430300D0A283629353736303000E0
:100978000D0A426175642072617465207375636342
:1009880065737366756C6C79206368616E676564FE
:1009980020746F2034383030000D0A4261756420AD
:1009A80072617465207375636365737366756C6CC7
:1009B80079206368616E67656420746F203936300A
:1009C80030000D0A42617564207261746520737588
:1009D800636365737366756C6C79206368616E67B1
:1009E800656420746F203134343030000D0A426160
:1009F80075642072617465207375636365737366CB
:100A0800756C6C79206368616E67656420746F200B
:100A18003139323030000D0A4261756420726174D8
:100A280065207375636365737366756C6C79206391
:100A380068616E67656420746F2033383430300025
:100A48000D0A426175642072617465207375636371
:100A580065737366756C6C79206368616E6765642D
:100A680020746F203537363030000D0A486F7720F4
:100A78006D616E79206461746120626974732061AC
:100A8800726520646573697265643F2028352C3669
:100A98002C372C382C3929000D0A4E756D62657279
:100AA800206F6620646174612062697473206861D4
:100AB80073206265656E206368616E676564207483
:100AC8006F2035000D0A4E756D626572206F6620C5
:100AD800646174612062697473206861732062655F
:100AE800656E206368616E67656420746F203600E8
:100AF8000D0A4E756D626572206F662064617461BF
:100B0800206269747320686173206265656E206372
:100B180068616E67656420746F2037000D0A4E7532
:100B28006D626572206F6620646174612062697409
:100B38007320686173206265656E206368616E6703
:100B4800656420746F2038000D0A4E756D626572F9
:100B5800206F662064617461206269747320686123
:100B680073206265656E206368616E6765642074D2
:100B78006F2039000D0A53656C656374206120701D
:100B880061726974793A0D0A2831294E6F6E650DC4
:100B98000A2832294F64640D0A2833294576656E80
:100BA800000D0A4E6F207061726974792077617345
:100BB80020736574000D0A416E206F6464207061B3
:100BC800726974792077617320736574000D0A4126
:100BD8006E206576656E2070617269747920776120
:100BE8007320736574000D0A53656C65637420681F
:100BF8006F77206D616E792073746F7020626974ED
:100C0800732061726520646573697265643A203186
:100C1800206F722032000D0A4F6E652073746F705A
:100C2800206269742077696C6C2062652070726F2D
:100C38007669646564000D0A54776F2073746F7069
:100C480020626974732077696C6C20626520707209
:100C58006F7669646564000D0A506C656173652080
:100C6800496E70757420746865204465736972658F
:100C780064204E756D626572206F662053746F70C4
:100C880020426974733A20000D0A506C65617365DF
:100C980020496E70757420746865204465736972A4
:100CA8006564205061726974793A20000D0A506CAD
:100CB8006561736520496E70757420746865204499
:100CC800657369726564204E756D626572206F6622
:100CD800204461746120426974733A2000506C6545
:100CE80061736520496E7075742074686520446569
:100CF8007369726564204261756420526174653A53
:100D08002000566F6C74730D000D0A496E76616C85
:100D1800696420436F6D6D616E642054727920415F
:100D28006761696E2E2E2E000D0A52656164793A4C
:100D380020000D0A4D656E753A20284C2943442C35
:100D48002028412943442C202845294550524F4DFD
:100D58002C20285529534152540D0A000D0A627956
:100D680020457567656E6520526F636B6579204312
:100D78006F7079726967687420323031382C20417D
:100D88006C6C20526967687473205265736572765B
:100D98006564000D0A4543452D3431322041544DD8
:100DA800656761333238502054696E79204F53009B
:00000001FF
