S00E000054696E794F532E73726563D0
S11300000C945A000C9477000C9477000C947700AD
S11300100C9477000C9477000C9477000C94770080
S11300200C9477000C9477000C9477000C94770070
S11300300C9477000C9477000C9477000C94770060
S11300400C9477000C9477000C9477000C94770050
S11300500C9477000C9477000C9477000C94770040
S11300600C9477000C9477000C9477000C94770030
S11300700C9477000C9477000C9477000C94770020
S11300800C9477000C9477000C9477000C94770010
S11300900C9477000C9477000C9477000C94770000
S11300A00C9477000C9477000C9477000C947700F0
S11300B00C94770011241FBECFEFD8E0DEBFCDBF74
S11300C011E0A0E0B1E0E0EAF9E002C005900D9291
S11300D0A03DB107D9F721E0A0EDB1E001C01D9228
S11300E0AC3DB207E1F70E946D020C94CE040C946F
S11300F0000007E004B900E005B901B910E007E623
S11301001093C5000093C40008E10093C10006E009
S11301100093C20007E800937A0000E400937C0097
S113012000E000937B000EEF00937E000FEF00933E
S11301307F0008950E94D7000FEF0AB90091D00103
S11301400BB904E005B90E94AC0000E005B90E94B7
S1130150AC000E94D10008950AEF1FEF1A95F1F741
S11301600A95D9F708950E94D7000FEF0AB90091B4
S1130170D0010BB906E005B90E94AC0000E005B956
S11301800E94AC000E94D10008950E94D70000E0B4
S11301900AB945B80BB10093D00105B80E94D1004B
S11301A0089502E00AB908E10093C100089500E04F
S11301B00093C10008950091C00007FF08950091C5
S11301C0C600F9CF0091C00007FFFCCF0091C60024
S11301D00093D20108951091C00015FFFCCF009147
S11301E0D2010093C600089507EC00937A000091B1
S11301F07A0006FDFCCF009178000093D9010091AC
S113020079000093D1010895F999FECF20E015E01B
S113021006E422BD11BD00BDFA9AF99A0895F99930
S1130220FECF20E015E000E022BD11BDF89A00B534
S11302300093D2010895CF93DF93EC019881992321
S113024041F021969093D2010E94EB009991911173
S1130250F9CFDF91CF910895CF93DF93EC0198818B
S1130260992341F021969093D0010E94B300999173
S11302709111F9CFDF91CF91089582EB91E00E9423
S11302801B018BE791E00E941B0180E591E00E9435
S11302901B0108958AE591E00E941B01089584E3FF
S11302A08093D0010E949A0088E08093D0010E943C
S11302B09A0082E08093D0010E949A0086E08093A5
S11302C0D0010E949A008FE08093D0010E949A008E
S11302D080E091E00E942C010895CF92DF92EF928A
S11302E0FF926B017C0120E030E040E85FE30E9474
S11302F0100418168CF420E030E040E05FE3C701FE
S1130300B6010E9415040E946D0120E030E040E82F
S11303105FE30E94750203C060E070E0CB01FF90D0
S1130320EF90DF90CF900895CF92DF92EF92FF92FB
S1130330CF93DF930E94F4002091D10130E0322F5B
S113034022278091D901280F311D3093DB0120939E
S1130350DA0140E157E2249FC001259F900D349FAC
S1130360900D112460E074E0621B730B0E94A604DC
S1130370EC01072E000C880B990B0E9484036B017F
S11303807C01BE01DD0F880B990B0E948403A70139
S113039096010E94750220E030E040E85DE30E948F
S11303A015040E946D0123E333E145E953E40E94FF
S11303B0150420E030EE46E755E40E9475029B01E7
S11303C0AC0164EE72EC8FE899E40E94E10223E34D
S11303D033E948E853E40E94740226E636E646EE22
S11303E05FE30E94150420E030E040E052E40E9404
S11303F075026B017C01C3EDD1E020E030E040E206
S113040051E40E94E1020E9453036883C701B601CC
S11304100E94530369838EE28A832DEC3CEC4CECFE
S11304205DE3C701B6010E94E1020E9453036B839E
S11304302AE037ED43E25CE3C701B6010E94E10222
S11304400E9453036C8380E28D83CE010E941B01C2
S11304508AE291E00E941B01DF91CF91FF90EF901F
S1130460DF90CF9008958EE091E00E941B0187E217
S113047091E00E941B010E94040187E291E00E9426
S11304801B010E940F010E94EB0087E291E00E9491
S11304901B0108958AE591E00E941B011092D2018C
S11304A00E94E2008091D2018823D1F3853659F06D
S11304B08C3619F0813651F403C00E944F0108951F
S11304C00E94940108950E943302089581E391E00B
S11304D00E941B010E944A0108950E9479000E9413
S11304E03D010E944A02FDCF5058BB27AA270E9413
S11304F08C020C94D6030E94C80338F00E94CF03E8
S113050020F039F49F3F19F426F40C94C5030EF43B
S1130510E095E7FB0C94BF03E92F0E94E70358F32F
S1130520BA17620773078407950720F079F4A6F5D4
S11305300C9409040EF4E0950B2EBA2FA02D0B0198
S1130540B90190010C01CA01A0011124FF27591B14
S113055099F0593F50F4503E68F11A16F040A22F1A
S1130560232F342F4427585FF3CF4695379527958B
S1130570A795F0405395C9F77EF41F16BA0B620B8A
S1130580730B840BBAF09150A1F0FF0FBB1F661FD1
S1130590771F881FC2F70EC0BA0F621F731F841F14
S11305A048F4879577956795B795F7959E3F08F03A
S11305B0B0CF9395880F08F09927EE0F97958795FC
S11305C008950E94F5020C94D6030E94CF0358F0BC
S11305D00E94C80340F029F45F3F29F00C94BF0344
S11305E051110C940A040C94C5030E94E70368F3A8
S11305F09923B1F3552391F3951B550BBB27AA27D8
S113060062177307840738F09F5F5F4F220F331F11
S1130610441FAA1FA9F335D00E2E3AF0E0E832D0D9
S113062091505040E695001CCAF72BD0FE2F29D0DC
S1130630660F771F881FBB1F261737074807AB07AE
S1130640B0E809F0BB0B802DBF01FF2793585F4F23
S11306503AF09E3F510578F00C94BF030C940A04C1
S11306605F3FE4F3983ED4F3869577956795B79505
S1130670F7959F5FC9F7880F911D9695879597F910
S11306800895E1E0660F771F881FBB1F6217730789
S11306908407BA0720F0621B730B840BBA0BEE1F9E
S11306A088F7E09508950E94EF0388F09F5798F02B
S11306B0B92F9927B751B0F0E1F0660F771F881F63
S11306C0991F1AF0BA95C9F714C0B13091F00E947D
S11306D00904B1E008950C940904672F782F882742
S11306E0B85F39F0B93FCCF3869577956795B395A4
S11306F0D9F73EF490958095709561957F4F8F4F13
S11307009F4F0895E89409C097FB3EF49095809517
S1130710709561957F4F8F4F9F4F9923A9F0F92FC3
S113072096E9BB279395F695879577956795B79541
S1130730F111F8CFFAF4BB0F11F460FF1BC06F5F27
S11307407F4F8F4F9F4F16C0882311F096E911C039
S1130750772321F09EE8872F762F05C0662371F05A
S113076096E8862F70E060E02AF09A95660F771F6E
S1130770881FDAF7880F9695879597F9089597F962
S11307809F6780E870E060E008959FEF80EC089533
S113079000240A941616170618060906089500245C
S11307A00A9412161306140605060895092E0394D6
S11307B0000C11F4882352F0BB0F40F4BF2B11F44A
S11307C060FF04C06F5F7F4F8F4F9F4F089557FDA9
S11307D09058440F551F59F05F3F71F04795880FAB
S11307E097FB991F61F09F3F79F087950895121642
S11307F013061406551FF2CF4695F1DF08C01616EE
S113080017061806991FF1CF86957105610508949E
S11308100895E894BB2766277727CB0197F90895B5
S11308200E94820408F48FEF08950E9428040C9417
S1130830D6030E94C80338F00E94CF0320F095230A
S113084011F00C94BF030C94C50311240C940A04F6
S11308500E94E70370F3959FC1F3950F50E0551F75
S1130860629FF001729FBB27F00DB11D639FAA2701
S1130870F00DB11DAA1F649F6627B00DA11D661F50
S1130880829F2227B00DA11D621F739FB00DA11D71
S1130890621F839FA00D611D221F749F3327A00D2B
S11308A0611D231F849F600D211D822F762F6A2FC7
S11308B011249F5750409AF0F1F088234AF0EE0F2C
S11308C0FF1FBB1F661F771F881F91505040A9F759
S11308D09E3F510580F00C94BF030C940A045F3FC3
S11308E0E4F3983ED4F3869577956795B795F79595
S11308F0E7959F5FC1F7FE2B880F911D969587950D
S113090097F90895990F0008550FAA0BE0E8FEEF38
S113091016161706E807F907C0F012161306E407BF
S1130920F50798F0621B730B840B950B39F40A26B8
S113093061F0232B242B252B21F408950A2609F496
S1130940A140A6958FEF811D811D089597FB072E69
S113095016F4009407D077FD09D00E94BA0407FC6E
S113096005D03EF4909581959F4F089570956195BB
S11309707F4F0895AA1BBB1B51E107C0AA1FBB1FD1
S1130980A617B70710F0A61BB70B881F991F5A9517
S1130990A9F780959095BC01CD010895F894FFCFF7
S11309A048656C6C6F2045434534313221000D0A93
S11309B0454550524F4D20577269746520616E64ED
S11309C020526561642E000D0A00566F6C74730D1D
S11309D0000D0A496E76616C696420436F6D6D6128
S11309E06E642054727920416761696E2E2E2E0048
S11309F00D0A52656164793A20000D0A4D656E75E1
S1130A003A20284C2943442C2028412943442C20B3
S1130A102845294550524F4D0D0A000D0A62792090
S1130A20457567656E6520526F636B657920436F0A
S1130A307079726967687420323031382C20416CC7
S1130A406C205269676874732052657365727665A9
S1130A5064000D0A4543452D3431322041544D651F
S1130A606761333238502054696E79204F53000047
S9030000FC
