:100000000C945A000C9477000C9477000C947700B1
:100010000C9477000C9477000C9477000C94770084
:100020000C9477000C9477000C9477000C94770074
:100030000C9477000C9477000C9477000C94770064
:100040000C9477000C9477000C9477000C94770054
:100050000C9477000C9477000C9477000C94770044
:100060000C9477000C9477000C9477000C94770034
:100070000C9477000C9477000C9477000C94770024
:100080000C9477000C9477000C9477000C94770014
:100090000C9477000C9477000C9477000C94770004
:1000A0000C9477000C9477000C9477000C947700F4
:1000B0000C94770011241FBECFEFD8E0DEBFCDBF78
:1000C00015E0A0E0B1E0ECEEF6E002C005900D9284
:1000D000A43AB107D9F725E0A4EAB5E001C01D9222
:1000E000A33BB207E1F70E9445030C9474030C9400
:1000F000000007E004B900E005B901B910E007E627
:100100001093C5000093C40008E10093C10006E00D
:100110000093C20007E800937A0000E400937C009B
:1001200000E000937B000EEF00937E000FEF009342
:100130007F0008950E94D7000FEF0AB90091A4052F
:100140000BB904E005B90E94AC0000E005B90E94BB
:10015000AC000E94D10008950AEF1FEF1A95F1F745
:100160000A95D9F708950E94D7000FEF0AB90091B8
:10017000A4050BB906E005B90E94AC0000E005B982
:100180000E94AC000E94D10008950E94D70000E0B8
:100190000AB945B80BB10093A40505B80E94D10077
:1001A000089502E00AB908E10093C100089500E053
:1001B0000093C10008950091C00007FF08950091C9
:1001C000C600F9CF0091C00007FFFCCF0091C60028
:1001D0000093A60508951091C00015FFFCCF009173
:1001E000A6050093C600089507EC00937A000091DD
:1001F0007A0006FDFCCF009178000093AE050091D7
:1002000079000093A5050895F999FECF20E015E047
:1002100006E422BD11BD00BDFA9AF99A0895F99934
:10022000FECF20E015E000E022BD11BDF89A00B538
:100230000093A605089501B910E00FEC1093C500D6
:100240000093C400089501B910E007E61093C500BB
:100250000093C400089501B910E004E41093C500B0
:100260000093C400089501B910E004E41093C500A0
:100270000093C400089501B910E009E11093C5008E
:100280000093C400089501B910E000E11093C50087
:100290000093C4000895CF93DF93EC0198819923D4
:1002A00041F021969093A6050E94EB00999191113F
:1002B000F9CFDF91CF910895CF93DF93EC0198812F
:1002C000992341F021969093A4050E94B30099913F
:1002D0009111F9CFDF91CF91089586E895E00E94C2
:1002E0004B018FE495E00E944B018BE195E00E9469
:1002F0004B01089585E295E00E944B01089584E347
:100300008093A4050E949A0088E08093A4050E942F
:100310009A0082E08093A4050E949A0086E0809370
:10032000A4050E949A008FE08093A4050E949A0081
:1003300080E091E00E945C010895CF93DF93C9EAC9
:10034000D5E08EE2898380E28B831C820E94F400D8
:100350002091A50530E0322F22278091AE05280F8D
:10036000311DC901880F991F220F331F220F331F20
:10037000220F331F820F931FEEEFF7E0BF010E94A1
:100380004C03262F30E3360F3883AC01440F551F42
:10039000880F991F880F991F880F991F840F951F29
:1003A000BF010E944C0330E3360F3A839093B005AF
:1003B0008093AF058F3F93401CF06F5C6093AB055B
:1003C0008091AB058A3331F4E9EAF5E080E382837A
:1003D0002F5C208389EA95E00E944B0185EF94E031
:1003E0000E944B01DF91CF9108958EE091E00E9431
:1003F0004B0187E291E00E944B010E94040187E2D9
:1004000091E00E944B010E940F010E94EB0087E2E5
:1004100091E00E944B0108958AE291E00E944B0115
:100420008BE491E00E944B011092A6050E94E2002D
:100430008091A6058823D1F38333D1F028F481334A
:1004400049F0823371F030C0853301F1C0F086335A
:1004500021F12AC08FE791E00E944B010E941B010D
:10046000089587EA91E00E944B010E9423010895BC
:100470008FEC91E00E944B010E942B01089588EFC0
:1004800091E00E944B010E943301089581E292E0C5
:100490000E944B010E943B0108958AE492E00E9471
:1004A0004B010E94430108958CEF94E00E944B01A0
:1004B000089583E792E00E944B011092A6050E94E6
:1004C000E2008091A6058823D1F38733A9F028F4B0
:1004D000853341F0863359F039C0883391F0893340
:1004E000F1F034C080EA92E00E944B0108958BEC59
:1004F00092E00E944B01089586EF92E00E944B012A
:1005000008958091A7059091A80581609093A80512
:100510008093A70581E293E00E944B0108958091AA
:10052000A7059091A80581609093A8058093A705E1
:100530008091B1059091B20584609093B20580934B
:10054000B1058CE493E00E944B0108958CEF94E098
:100550000E944B01089587E793E00E944B0110929F
:10056000A6050E94E2008091A6058823D1F382337C
:1005700049F08333A9F08133C1F480EA93E00E940B
:100580004B0108958091A7059091A80581609093F3
:10059000A8058093A70583EB93E00E944B01089583
:1005A0008AEC93E00E944B0108958CEF94E00E9446
:1005B0004B01089582EE93E00E944B011092A60534
:1005C0000E94E2008091A6058823D1F3813319F0BF
:1005D000823379F013C08091A7059091A8058860B7
:1005E0009093A8058093A70581E194E00E944B01B8
:1005F000089580E394E00E944B0108958CEF94E00D
:100600000E944B01089580ED94E00E944B010E94EE
:100610000C0281EA94E00E944B010E9459028FE78C
:1006200094E00E944B010E94AB0280E594E00E949E
:100630004B010E94DA02089585E295E00E944B0189
:100640001092A6050E94E2008091A6058823D1F3AE
:10065000853679F018F4813649F010C08C3619F0DF
:10066000853751F00BC00E947F0108950E949D01C3
:1006700008950E94F50108950E9403038CEF94E011
:100680000E944B010E947A0108950E9479000E9405
:100690006D010E941C03FDCF97FB072E16F40094FA
:1006A00007D077FD09D00E94600307FC05D03EF417
:1006B000909581959F4F0895709561957F4F08950E
:1006C000AA1BBB1B51E107C0AA1FBB1FA617B70778
:1006D00010F0A61BB70B881F991F5A95A9F7809594
:0C06E0009095BC01CD010895F894FFCF67
:1006EC0048656C6C6F2045434534313221000D0A4E
:1006FC00454550524F4D20577269746520616E64A8
:10070C0020526561642E000D0A000A57686174203E
:10071C0042617564205261746520776F756C64203A
:10072C00796F75206C696B653F0A00283129343864
:10073C0030300A283229393630300A2833293134FE
:10074C003430300A28342931393230300A283529EE
:10075C0033383430300A2836293537363030000AF1
:10076C00426175642072617465207375636365738F
:10077C007366756C6C79206368616E676564207450
:10078C006F2034383030000A426175642072617415
:10079C0065207375636365737366756C6C79206320
:1007AC0068616E67656420746F2039363030000ADA
:1007BC00426175642072617465207375636365733F
:1007CC007366756C6C79206368616E676564207400
:1007DC006F203134343030000A426175642072610C
:1007EC007465207375636365737366756C6C7920BF
:1007FC006368616E67656420746F20313932303004
:10080C00000A4261756420726174652073756363BC
:10081C0065737366756C6C79206368616E6765646B
:10082C0020746F203338343030000A4261756420F4
:10083C0072617465207375636365737366756C6C34
:10084C0079206368616E67656420746F2035373674
:10085C003030000A486F77206D616E7920646174C6
:10086C0061206269747320617265206465736972BA
:10087C0065643F2028352C362C372C382C39290030
:10088C000A4E756D626572206F662064617461201A
:10089C006269747320686173206265656E20636899
:1008AC00616E67656420746F2035000A4E756D6249
:1008BC006572206F662064617461206269747320B4
:1008CC00686173206265656E206368616E6765643C
:1008DC0020746F2036000A4E756D626572206F664B
:1008EC002064617461206269747320686173206292
:1008FC0065656E206368616E67656420746F203770
:10090C00000A4E756D626572206F662064617461B9
:10091C00206269747320686173206265656E206360
:10092C0068616E67656420746F2038000A4E756DBF
:10093C00626572206F6620646174612062697473F1
:10094C0020686173206265656E206368616E6765FF
:10095C006420746F2039000A53656C6563742061E0
:10096C00207061726974793A0A2831294E6F6E656C
:10097C000A2832294F64640A2833294576656E00AB
:10098C000A4E6F20706172697479207761732073DD
:10099C006574000A416E206F646420706172697422
:1009AC00792077617320736574000A416E20657637
:1009BC00656E20706172697479207761732073653C
:1009CC0074000A53656C65637420686F77206D61E1
:1009DC006E792073746F7020626974732061726514
:1009EC0020646573697265643A2031206F7220321D
:1009FC00000A4F6E652073746F70206269742077E3
:100A0C00696C6C2062652070726F76696465640035
:100A1C000A54776F2073746F702062697473207737
:100A2C00696C6C2062652070726F76696465640015
:100A3C00506C6561736520496E70757420746865BF
:100A4C002044657369726564204E756D6265722011
:100A5C006F662053746F7020426974733A20005093
:100A6C006C6561736520496E7075742074686520BF
:100A7C0044657369726564205061726974793A20B7
:100A8C0000506C6561736520496E707574207468D4
:100A9C00652044657369726564204E756D6265727C
:100AAC00206F66204461746120426974733A20009F
:100ABC00506C6561736520496E707574207468653F
:100ACC0020446573697265642042617564205261CB
:100ADC0074653A2000566F6C74730D000D0A496EE4
:100AEC0076616C696420436F6D6D616E6420547225
:100AFC007920416761696E2E2E2E000D0A526561B8
:100B0C0064793A20000D0A4D656E753A20284C29FF
:100B1C0043442C2028412943442C20284529455066
:100B2C00524F4D2C20285529534152540D0A000D7B
:100B3C000A627920457567656E6520526F636B6537
:100B4C007920436F7079726967687420323031385C
:100B5C002C20416C6C205269676874732052657349
:100B6C006572766564000D0A4543452D343132209B
:100B7C0041544D656761333238502054696E792089
:040B8C004F530000C3
:00000001FF
