:100000000C9487000C94A4000C94A4000C94A400FD
:100010000C94A4000C94A4000C94A4000C94A400D0
:100020000C94A4000C94A4000C94A4000C94A400C0
:100030000C94A4000C94A4000C94A4000C94A400B0
:100040000C94A4000C94A4000C94A4000C94A400A0
:100050000C94A4000C94A4000C94A4000C94A40090
:100060000C94A4000C94A4000C94A4000C94A40080
:100070000C94A4000C94A4000C94A4000C94A40070
:100080000C94A4000C94A4000C94A4000C94A40060
:100090000C94A4000C94A4000C94A4000C94A40050
:1000A0000C94A4000C94A4000C94A4000C94A40040
:1000B0000C94A40008000000BE922449123EABAA92
:1000C000AA2ABECDCCCC4C3E00000080BEABAAAA72
:1000D000AA3E00000000BF000000803F00000000BA
:1000E00000084178D3BB4387D1133D190E3CC3BDF3
:1000F0004282AD2B3E68EC8276BED98FE1A93E4CA0
:1001000080EFFFBE01C4FF7F3F000000000011240C
:100110001FBECFEFD8E0DEBFCDBF17E0A0E0B1E05B
:10012000E0E2F0E102C005900D92A835B107D9F7E1
:1001300027E0A8E5B7E001C01D92A237B207E1F7BA
:100140000E94EC040C940E080C94000007E004B923
:1001500000E005B901B910E007E61093C50000936F
:10016000C40008E10093C10006E00093C20007E864
:1001700000937A0000E400937C0007E000937B008A
:100180000EEF00937E000FEF00937F0008950E9412
:1001900004010FEF0AB9009159070BB904E005B942
:1001A0000E94D90000E005B90E94D9000E94FE001B
:1001B00008950AEF1FEF1A95F1F70A95D9F70895F8
:1001C0000E9404010FEF0AB9009159070BB906E02C
:1001D00005B90E94D90000E005B90E94D9000E942B
:1001E000FE0008950E94040100E00AB945B80BB171
:1001F0000093590705B80E94FE00089502E00AB96D
:1002000008E10093C100089500E00093C100089543
:100210000091C00007FF08950091C600F9CF00913A
:10022000C00007FFFCCF0091C60000935E07089551
:100230000091C60000935E0708951091C00015FF5D
:10024000FCCF00915E070093C600089507EE00936F
:100250007A0000917A0006FDFCCF009178000093AF
:1002600069070091790000935A070895F999FECF24
:1002700020915807109166070091650722BD11BDB6
:1002800000BDFA9AF99A0895F999FECF209158077E
:100290001091660700E022BD11BDF89A00B50093E9
:1002A0005E07089501B910916C07009171071093D2
:1002B000C5000093C4000895CF93DF93EC019881AB
:1002C000992341F0219690935E070E941D01999118
:1002D0009111F9CFDF91CF910895CF93DF93EC0186
:1002E0009881992341F02196909359070E94E0004C
:1002F00099919111F9CFDF91CF9108958AE397E019
:100300000E945C0183E097E00E945C018FEC96E024
:100310000E945C01089589ED96E00E945C010895B9
:100320008F929F92AF92BF92CF92DF92EF92FF9205
:100330000F931F93CF93DF937C015B019A01FC0124
:1003400001900020E9F731978F01081B190BFB0181
:1003500001900020E9F731974F01861A970A64014E
:10036000C40ED51E4C155D057CF4EB01C901B80126
:100370000E94D607F701E80FF91F808189932F5F4C
:100380003F4F2C153D0591F7F501E80DF91D108241
:10039000DF91CF911F910F91FF90EF90DF90CF9061
:1003A000BF90AF909F908F900895CF92DF92EF9281
:1003B000FF920F931F93CF93DF93CDB7DEB7619773
:1003C0000FB6F894DEBF0FBECDBF6C01FC010190EB
:1003D0000020E9F731977F01E81AF90A00E010E000
:1003E00009C00197F1F70E94180109311105E9F0E0
:1003F0000F5F1F4F81E1E7E3F1E0DE01119601900D
:100400000D928A95E1F7C801B7010E94D607AC01A9
:10041000BE016F5F7F4FC6010E949001CE01019621
:100420000E946D0188E893E1DCCF61960FB6F894E5
:10043000DEBF0FBECDBFDF91CF911F910F91FF9017
:10044000EF90DF90CF900895CF93DF93CDB7DEB7D5
:10045000E2970FB6F894DEBF0FBECDBF84E3809362
:1004600059070E94C70088E0809359070E94C7007F
:1004700082E0809359070E94C70086E08093590765
:100480000E94C7008FE0809359070E94C70089E24D
:10049000E5E0F1E0DE01119601900D928A95E1F719
:1004A000FE01BA9689E0DF011D928A95E9F7CE0137
:1004B00001960E94D501E2960FB6F894DEBF0FBEFA
:1004C000CDBFDF91CF9108958F929F92AF92BF924F
:1004D000CF92DF92EF92FF9281E090E090937007CD
:1004E00080936F070E94260160915A0770E0762F73
:1004F000662780916907680F711D70936B07609381
:100500006A07072E000C880B990B0E940E066B01E0
:100510007C0120E030E44CE156E40E9442074B01AC
:100520005C01A701960160E070E080E894E40E941D
:10053000F7049B01AC01C501B4010E94640520E0F1
:1005400030E44CE156E40E9464050E94FA062CE572
:100550003FEA43E953E40E94420720E030EE46E7D9
:1005600055E40E94F8049B01AC016CEB7BE68EE83D
:1005700099E40E94640523E333E948E853E40E94C8
:10058000F70426E636E646EE5FE30E94420720E0E7
:1005900030E040E052E40E94F8040E9449060E94C4
:1005A000D605CB0164E670E00E94D60720E3260F53
:1005B0006AE070E00E94D607605D805D203309F438
:1005C00020E2EFE5F7E020836183828387EA83837B
:1005D0001482BF0180E091E00E94FE07892B71F038
:1005E0008FE597E00E945C0188E491E00E945C0145
:1005F0006FE577E080E091E00E9407080E94180113
:1006000080915E07883721F41092700710926F076F
:10061000FF90EF90DF90CF90BF90AF909F908F9022
:1006200008958CE491E00E945C0110925E070E94A4
:100630000F0180915E078823D1F3809358078BE8E0
:1006400091E00E945C0110925E070E940F01809170
:100650005E078823D1F3809366070E9444010E94BD
:100660001D0108958AEC91E00E945C0110925E07E2
:100670000E940F0180915E078823D1F38093580771
:1006800088E092E00E945C0110925E070E940F01D8
:1006900080915E078823D1F38093660786E492E019
:1006A0000E945C0110925E070E940F0180915E071C
:1006B0008823D1F3809365070E94360186E692E095
:1006C0000E945C0108958DEA92E00E945C01109204
:1006D0005E070E940F0180915E078823D1F3823765
:1006E00019F0873721F006C00E94110308950E9477
:1006F0003203089580EB96E00E945C01089581EC3E
:1007000092E00E945C0183EE92E00E945C011092F4
:100710005E070E940F0180915E078823D1F3833327
:1007200021F128F4813349F0823399F04EC08533AA
:10073000A1F138F18633E9F148C08EE193E00E94DF
:100740005C0110926C078FEC809371070E9452013C
:10075000089587E493E00E945C0110926C0787E69D
:10076000809371070E945201089580E793E00E94F0
:100770005C0110926C0784E4809371070E9452011F
:1007800008958AE993E00E945C0110926C0783E36C
:10079000809371070E945201089584EC93E00E94B7
:1007A0005C0110926C0789E1809371070E945201ED
:1007B00008958EEE93E00E945C0110926C0780E138
:1007C000809371070E945201089580EB96E00E9489
:1007D0005C010E947F03089588E194E00E945C011F
:1007E00010925E070E940F0180915E078823D1F36B
:1007F0008733A9F028F4853341F0863359F039C0A6
:10080000883391F08933F1F034C086E494E00E949B
:100810005C01089582E794E00E945C0108958EE9EE
:1008200094E00E945C0108958091670790916807A9
:10083000816090936807809367078AEC94E00E9438
:100840005C0108958091670790916807816090939B
:1008500068078093670780916D0790916E078460A9
:1008600090936E0780936D0786EF94E00E945C0181
:10087000089580EB96E00E945C010E94EC030895CD
:1008800082E295E00E945C0110925E070E940F01D7
:1008900080915E078823D1F3823349F08333A9F036
:1008A0008133C1F48FE495E00E945C01089580914A
:1008B0006707909168078160909368078093670746
:1008C00083E695E00E945C0108958BE795E00E9425
:1008D0005C01089580EB96E00E945C010E94400458
:1008E000089584E995E00E945C0110925E070E94E1
:1008F0000F0180915E078823D1F3813319F0823391
:1009000079F013C080916707909168078860909391
:1009100068078093670784EC95E00E945C01089566
:1009200084EE95E00E945C01089580EB96E00E94C1
:100930005C010E94710408958BE896E00E945C01BE
:100940000E947F038AE596E00E945C010E94EC030E
:1009500086E396E00E945C010E94400485E096E0F8
:100960000E945C010E947104089580916F0790912C
:100970007007892B69F489ED96E00E945C01109262
:100980005E070E940F0180915E078823D1F304C0A7
:1009900081E680935E0710C08C3659F028F48136CA
:1009A00059F0853661F011C0853761F0883799F0CC
:1009B0000CC00E94240208950E94640208950E94BF
:1009C000630308950E949C04089580EB96E00E94C2
:1009D0005C010E948B0108950E94A6000E947E0186
:1009E0001092700710926F070E94B504FDCF505807
:1009F000BB27AA270E940F050C94A0060E9492060E
:100A000038F00E94990620F039F49F3F19F426F43B
:100A10000C948F060EF4E095E7FB0C946006E92F2A
:100A20000E94B10658F3BA17620773078407950747
:100A300020F079F4A6F50C94EB060EF4E0950B2E5D
:100A4000BA2FA02D0B01B90190010C01CA01A00120
:100A50001124FF27591B99F0593F50F4503E68F17B
:100A60001A16F040A22F232F342F4427585FF3CFBC
:100A7000469537952795A795F0405395C9F77EF48D
:100A80001F16BA0B620B730B840BBAF09150A1F0D6
:100A9000FF0FBB1F661F771F881FC2F70EC0BA0F5C
:100AA000621F731F841F48F4879577956795B795E4
:100AB000F7959E3F08F0B0CF9395880F08F09927DF
:100AC000EE0F9795879508950E9478050C94A006DF
:100AD0000E94990658F00E94920640F029F45F3F68
:100AE00029F00C94600651110C94EC060C948F06BE
:100AF0000E94B10668F39923B1F3552391F3951B36
:100B0000550BBB27AA2762177307840738F09F5F2E
:100B10005F4F220F331F441FAA1FA9F335D00E2E9B
:100B20003AF0E0E832D091505040E695001CCAF708
:100B30002BD0FE2F29D0660F771F881FBB1F2617CB
:100B400037074807AB07B0E809F0BB0B802DBF01A2
:100B5000FF2793585F4F3AF09E3F510578F00C9471
:100B600060060C94EC065F3FE4F3983ED4F3869560
:100B700077956795B795F7959F5FC9F7880F911D92
:100B80009695879597F90895E1E0660F771F881F7E
:100B9000BB1F621773078407BA0720F0621B730B31
:100BA000840BBA0BEE1F88F7E09508950E94DD05CF
:100BB0006894B1110C94EC0608950E94B90688F06F
:100BC0009F5798F0B92F9927B751B0F0E1F0660F11
:100BD000771F881F991F1AF0BA95C9F714C0B13052
:100BE00091F00E94EB06B1E008950C94EB06672F9C
:100BF000782F8827B85F39F0B93FCCF38695779581
:100C00006795B395D9F73EF4909580957095619569
:100C10007F4F8F4F9F4F0895E89409C097FB3EF494
:100C200090958095709561957F4F8F4F9F4F992339
:100C3000A9F0F92F96E9BB279395F69587957795B7
:100C40006795B795F111F8CFFAF4BB0F11F460FF77
:100C50001BC06F5F7F4F8F4F9F4F16C0882311F0CF
:100C600096E911C0772321F09EE8872F762F05C0E3
:100C7000662371F096E8862F70E060E02AF09A957E
:100C8000660F771F881FDAF7880F9695879597F973
:100C900008950E94D30690F09F3748F4911116F002
:100CA0000C94EC0660E070E080E89FEB089526F479
:100CB0001B16611D711D811D0C9466060C94810626
:100CC00097F99F6780E870E060E00895882371F4E9
:100CD000772321F09850872B762F07C0662311F4D5
:100CE00099270DC09051862B70E060E02AF09A950C
:100CF000660F771F881FDAF7880F9695879597F903
:100D000008959F3F31F0915020F48795779567952E
:100D1000B795880F911D9695879597F908959FEF40
:100D200080EC089500240A94161617061806090682
:100D3000089500240A941216130614060506089551
:100D4000092E0394000C11F4882352F0BB0F40F4D9
:100D5000BF2B11F460FF04C06F5F7F4F8F4F9F4F19
:100D6000089557FD9058440F551F59F05F3F71F09B
:100D70004795880F97FB991F61F09F3F79F0879502
:100D80000895121613061406551FF2CF4695F1DF8B
:100D900008C0161617061806991FF1CF869571051B
:100DA0006105089408950E94B906A0F0BEE7B9173E
:100DB00088F4BB279F3860F41616B11D672F782F73
:100DC0008827985FF7CF869577956795B11D93959E
:100DD0009639C8F30895E894BB2766277727CB0197
:100DE00097F9089516F00C9481060C948F06689478
:100DF0000C9460060E94B906A8F39923C1F3AEF3E0
:100E0000DF93CF931F930F93FF92C92FDD27882382
:100E10002AF02197660F771F881FDAF720E030E06D
:100E200040E85FEB9FE3883920F0803E38F0219660
:100E30008F770E94F804E4EBF0E004C00E94F8040D
:100E4000E1EEF0E00E94AF078B01BE01EC01FB2E4A
:100E50006F5771097595771F880B990B0E940E06C5
:100E600028E132E741E35FE30E945507AF2D980187
:100E7000AE01FF900F911F91CF91DF910E940F055E
:100E80000C94A0060E9455070C94A0060E9492069E
:100E900038F00E94990620F0952311F00C9460061A
:100EA0000C948F0611240C94EC060E94B10670F38A
:100EB000959FC1F3950F50E0551F629FF001729FFF
:100EC000BB27F00DB11D639FAA27F00DB11DAA1F0E
:100ED000649F6627B00DA11D661F829F2227B00D5B
:100EE000A11D621F739FB00DA11D621F839FA00DE6
:100EF000611D221F749F3327A00D611D231F849F36
:100F0000600D211D822F762F6A2F11249F5750408C
:100F10009AF0F1F088234AF0EE0FFF1FBB1F661F07
:100F2000771F881F91505040A9F79E3F510580F0D0
:100F30000C9460060C94EC065F3FE4F3983ED4F307
:100F4000869577956795B795F795E7959F5FC1F774
:100F5000FE2B880F911D9695879597F90895DF933D
:100F6000CF931F930F93FF92EF92DF927B018C013F
:100F7000689406C0DA2EEF010E945507FE01E8943E
:100F8000A5912591359145915591A6F3EF010E94C8
:100F90000F05FE019701A801DA9469F7DF90EF9041
:100FA000FF900F911F91CF91DF91089597FB072E2E
:100FB00016F4009407D077FD09D00E94EA0707FCD9
:100FC00005D03EF4909581959F4F08957095619559
:100FD0007F4F0895AA1BBB1B51E107C0AA1FBB1F6F
:100FE000A617B70710F0A61BB70B881F991F5A95B5
:100FF000A9F780959095BC01CD010895FB01DC0116
:101000008D91019080190110D9F3990B0895FB017E
:10101000DC0101900D920020E1F70895F894FFCFD4
:10102000202020202047726F7570203420697320A3
:1010300074686520626573742067726F75702069CB
:101040006E2074686520776F726C642E200000003B
:101050000000000000000020202020202020202070
:10106000202020202020200020460D000D0A456E63
:10107000746572207468652075707065722062698D
:1010800074206F6620612076616C6964204545504C
:10109000524F4D206164647265737320746F2072C7
:1010A0006561642066726F6D3A20000D0A456E74AA
:1010B000657220746865206C6F7765722062697450
:1010C000206F6620612076616C696420454550522E
:1010D0004F4D206164647265737320746F20726574
:1010E00061642066726F6D3A20000D0A456E74656A
:1010F0007220746865207570706572206269742052
:101100006F6620612076616C696420454550524FBE
:101110004D206164647265737320746F2077726907
:10112000746520746F3A20000D0A456E7465722054
:10113000746865206C6F77657220626974206F66D1
:1011400020612076616C696420454550524F4D20E6
:101150006164647265737320746F2077726974655B
:1011600020746F3A20000D0A456E74657220746811
:1011700065206461746120746F2062652073746FF0
:101180007265643A20000D0A5468652064617461D8
:1011900020686173206265656E2073756363657393
:1011A0007366756C6C79207772697474656E2074DF
:1011B0006F207468652064657369726564204545B5
:1011C00050524F4D2061646472657373000D0A289C
:1011D0005229656164206F722028572972697465ED
:1011E000000D0A5768617420426175642052617471
:1011F0006520776F756C6420796F75206C696B65FD
:101200003F0A000D0A283129343830300D0A2832BF
:1012100029393630300D0A28332931343430300D35
:101220000A28342931393230300D0A28352933382B
:101230003430300D0A2836293537363030000D0A63
:1012400042617564207261746520737563636573B0
:101250007366756C6C79206368616E676564207471
:101260006F2034383030000D0A426175642072619D
:101270007465207375636365737366756C6C792030
:101280006368616E67656420746F203936303000A2
:101290000D0A426175642072617465207375636321
:1012A00065737366756C6C79206368616E676564DD
:1012B00020746F203134343030000D0A426175647F
:1012C0002072617465207375636365737366756CF2
:1012D0006C79206368616E67656420746F203139B2
:1012E000323030000D0A42617564207261746520ED
:1012F0007375636365737366756C6C79206368617D
:101300006E67656420746F203338343030000D0A06
:1013100042617564207261746520737563636573DF
:101320007366756C6C79206368616E6765642074A0
:101330006F203537363030000D0A486F77206D61E9
:101340006E792064617461206269747320617265D2
:1013500020646573697265643F2028352C362C370C
:101360002C382C3929000D0A4E756D626572206F7C
:1013700066206461746120626974732068617320FF
:101380006265656E206368616E67656420746F20B6
:1013900035000D0A4E756D626572206F66206461BE
:1013A0007461206269747320686173206265656E80
:1013B000206368616E67656420746F2036000D0AD3
:1013C0004E756D626572206F662064617461206283
:1013D00069747320686173206265656E206368615B
:1013E0006E67656420746F2037000D0A4E756D625C
:1013F0006572206F66206461746120626974732075
:10140000686173206265656E206368616E676564FC
:1014100020746F2038000D0A4E756D626572206F62
:10142000662064617461206269747320686173204E
:101430006265656E206368616E67656420746F2005
:1014400039000D0A53656C65637420612070617208
:101450006974793A0D0A2831294E6F6E650D0A2894
:1014600032294F64640D0A2833294576656E000DD4
:101470000A4E6F20706172697479207761732073EE
:101480006574000D0A416E206F646420706172699A
:1014900074792077617320736574000D0A416E20A2
:1014A0006576656E2070617269747920776173204A
:1014B000736574000D0A53656C65637420686F77FB
:1014C000206D616E792073746F702062697473206F
:1014D00061726520646573697265643A2031206FBA
:1014E000722032000D0A4F6E652073746F70206297
:1014F00069742077696C6C2062652070726F766900
:10150000646564000D0A54776F2073746F702062F5
:101510006974732077696C6C2062652070726F76D5
:1015200069646564000D0A506C6561736520496EDD
:1015300070757420746865204465736972656420F1
:101540004E756D626572206F662053746F70204215
:101550006974733A20000D0A506C65617365204907
:101560006E70757420746865204465736972656473
:10157000205061726974793A20000D0A506C6561DF
:10158000736520496E7075742074686520446573B6
:1015900069726564204E756D626572206F662044C5
:1015A00061746120426974733A2000506C65617304
:1015B0006520496E70757420746865204465736990
:1015C000726564204261756420526174653A20003E
:1015D0000D0A496E76616C696420436F6D6D616EB2
:1015E000642054727920416761696E2E2E2E000DA1
:1015F0000A52656164793A20000D0A4D656E753AAC
:1016000020284C2943442C2028412943442C2028BD
:1016100045294550524F4D2C2028552953415254AD
:101620000D0A000D0A627920457567656E652052C6
:101630006F636B657920436F707972696768742096
:10164000323031382C20416C6C20526967687473D9
:10165000205265736572766564000D0A4543452D19
:101660003431322041544D65676133323850205453
:08167000696E79204F53000060
:00000001FF
