S00E000054696E794F532E73726563D0
S11300000C9487000C94A4000C94A4000C94A400F9
S11300100C94A4000C94A4000C94A4000C94A400CC
S11300200C94A4000C94A4000C94A4000C94A400BC
S11300300C94A4000C94A4000C94A4000C94A400AC
S11300400C94A4000C94A4000C94A4000C94A4009C
S11300500C94A4000C94A4000C94A4000C94A4008C
S11300600C94A4000C94A4000C94A4000C94A4007C
S11300700C94A4000C94A4000C94A4000C94A4006C
S11300800C94A4000C94A4000C94A4000C94A4005C
S11300900C94A4000C94A4000C94A4000C94A4004C
S11300A00C94A4000C94A4000C94A4000C94A4003C
S11300B00C94A40008000000BE922449123EABAA8E
S11300C0AA2ABECDCCCC4C3E00000080BEABAAAA6E
S11300D0AA3E00000000BF000000803F00000000B6
S11300E000084178D3BB4387D1133D190E3CC3BDEF
S11300F04282AD2B3E68EC8276BED98FE1A93E4C9C
S113010080EFFFBE01C4FF7F3F0000000000112408
S11301101FBECFEFD8E0DEBFCDBF17E0A0E0B1E057
S1130120E8EBF1E102C005900D92A636B107D9F7CC
S113013027E0A6E6B7E001C01D92A638B207E1F7B2
S11301400E94B0050C94DA080C94000007E004B98E
S113015000E005B901B910E007E61093C50000936B
S1130160C40008E10093C10006E00093C20007E860
S113017000937A0000E400937C0007E000937B0086
S11301800EEF00937E000FEF00937F0008950E940E
S113019004010FEF0AB9009167070BB904E005B930
S11301A00E94D90000E005B90E94D9000E94FE0017
S11301B008950FEF1FEF1A95F1F70A95D9F70895EF
S11301C00E9404010FEF0AB9009167070BB906E01A
S11301D005B90E94D90000E005B90E94D9000E9427
S11301E0FE0008950E94040100E00AB945B80BB16D
S11301F00093670705B80E94FE00089502E00AB95B
S113020008E10093C100089500E00093C10008953F
S11302100091C00007FF08950091C600F9CF009136
S1130220C00007FFFCCF0091C60000936C0708953F
S11302300091C60000936C0708951091C00015FF4B
S1130240FCCF00916C070093C6000092C60008958D
S113025007EE00937A0000917A0006FDFCCF00912E
S1130260780000937B070091790000936807089554
S1130270F999FECF209166071091760700917507D2
S113028022BD11BD00BDFA9AF99A0895F999FECFDD
S1130290209166071091760700E022BD11BDF89AFF
S11302A000B500936C07089501B910917E07009181
S11302B085071093C5000093C4000895CF93DF937E
S11302C0EC019881992341F0219690936C070E9448
S11302D01D0199919111F9CFDF91CF910895CF9399
S11302E0DF93EC019881992341F02196909367075D
S11302F00E94E00099919111F9CFDF91CF91089577
S113030088E497E00E945E0181E197E00E945E012B
S11303108DED96E00E945E01089587EE96E00E94BE
S11303205E0108958F929F92AF92BF92CF92DF9217
S1130330EF92FF920F931F93CF93DF937C015B01A6
S11303409A01FC0101900020E9F731978F01081B05
S1130350190BFB0101900020E9F731974F01861A30
S1130360970A6401C40ED51E4C155D057CF4EB019F
S1130370C901B8010E94A208F701E80FF91F8081A2
S113038089932F5F3F4F2C153D0591F7F501E80D3B
S1130390F91D1082DF91CF911F910F91FF90EF9083
S11303A0DF90CF90BF90AF909F908F900895CF93A0
S11303B0DF93CDB7DEB761970FB6F894DEBF0FBEFB
S11303C0CDBF9C0181E090E09093780780937707FC
S11303D0F90101900020E9F73197BF01621B730B0B
S11303E081E1E9E3F1E0DE01119601900D928A9535
S11303F0E1F780918107909182070E94A208AC01E5
S1130400BE016F5F7F4FC9010E949201CE01019628
S11304100E946F010E94D9000E94180180916C070C
S1130420883749F410927807109277071092820760
S11304301092810735C00E94D9000E94D9000E9401
S1130440D9000E94D9000E94D9000E94D9000E94BC
S1130450D9000E94D9000E94D9000E94D9000E94AC
S1130460D9000E94D9000E94D9000E94D9000E949C
S1130470D9000E94D9000E94D9000E94D9000E948C
S1130480D9000E94D9000E94D9000E94D90080910D
S11304908107909182070196909382078093810748
S11304A061960FB6F894DEBF0FBECDBFDF91CF913A
S11304B00895CF93DF93CDB7DEB7E2970FB6F894E4
S11304C0DEBF0FBECDBF84E3809367070E94C700E1
S11304D088E0809367070E94C70082E080936707E3
S11304E00E94C70086E0809367070E94C7008FE0E0
S11304F0809367070E94C70081E2E7E0F1E0DE0134
S1130500119601900D928A95E1F7FE01B29681E170
S1130510DF011D928A95E9F7CE0101960E94D70169
S1130520E2960FB6F894DEBF0FBECDBFDF91CF9138
S113053008958F929F92AF92BF92CF92DF92EF92E3
S1130540FF921F93CF93DF9381E090E09093840711
S1130550809383070E9428016091680770E0762FDA
S1130560662780917B07680F711D70937D076093E8
S11305707C07072E000C880B990B0E94DA066B018E
S11305807C0120E030E44CE156E40E940E084B016B
S11305905C01A701960160E070E080E894E40E94A9
S11305A0C3059B01AC01C501B4010E94300620E0E3
S11305B030E44CE156E40E9430060E94C6072CE564
S11305C03FEA43E953E40E940E0820E030EE46E798
S11305D055E40E94C4059B01AC016CEB7BE68EE8FC
S11305E099E40E94300623E333E948E853E40E9487
S11305F0C30526E636E646EE5FE30E940E0820E0D9
S113060030E040E052E40E94C40520E030E040E2E3
S113061051E40E940E080E94A206CB0168EE73E02A
S11306200E94A208EC01072E000C880B990B0E9473
S1130630DA060E94150720E030E040E452E40E940C
S1130640C4050E94A906162FCE0164E670E00E943C
S1130650A208EC01072E000C880B990B0E94DA0605
S11306600E94150720E030E040E452E40E94C405F3
S11306700E94A906E62ECE016AE070E00E94A2085C
S1130680EC01072E000C880B990B0E94DA060E94DD
S1130690150720E030E040E452E40E94C4050E94C3
S11306A0A906F62EBE01DD0F880B990B0E94DA060F
S11306B00E94150720E030E040E452E40E94C405A3
S11306C00E94A906103309F410E2EDE6F7E0108366
S11306D0E182F2828EE28383648387EA85831682D1
S11306E0BF0180E091E00E94CA08892B91F08AE45E
S11306F091E00E945E018DE697E00E945E0186E52E
S113070091E00E945E016DE677E080E091E00E9456
S1130710D3080E94D9000E94D9000E94D9000E94E7
S1130720D9000E94180180916C07883701F58091E7
S1130730810790918207C397D4F010928407109296
S1130740830786E0E4E4F1E0A0E0B1E001900D92DB
S11307508A95E1F786E0E4E4F1E0ADE6B7E00190E4
S11307600D928A95E1F71092820710928107809189
S11307708107909182070196909382078093810765
S1130780DF91CF911F91FF90EF90DF90CF90BF90BA
S1130790AF909F908F9008958AE591E00E945E014A
S11307A010926C070E940F0180916C078823D1F38B
S11307B08093660789E991E00E945E0110926C07BC
S11307C00E940F0180916C078823D1F380937607F0
S11307D00E9446010E941D01089588ED91E00E9447
S11307E05E0110926C070E940F0180916C078823B0
S11307F0D1F38093660786E192E00E945E01109235
S11308006C070E940F0180916C078823D1F38093B9
S1130810760784E592E00E945E0110926C070E94C4
S11308200F0180916C078823D1F3809375070E9490
S1130830380184E792E00E945E0108958BEB92E018
S11308400E945E0110926C070E940F0180916C0758
S11308508823D1F3823719F0873721F006C00E942C
S1130860CC0308950E94ED0308958EEB96E00E9458
S11308705E0108958FEC92E00E945E0181EF92E0A8
S11308800E945E0110926C070E940F0180916C0718
S11308908823D1F3833321F128F4813349F082335F
S11308A099F04EC08533A1F138F18633E9F148C09F
S11308B08CE293E00E945E0110927E078FEC80939D
S11308C085070E945401089585E593E00E945E0126
S11308D010927E0787E6809385070E94540108954D
S11308E08EE793E00E945E0110927E0784E4809379
S11308F085070E945401089588EA93E00E945E01EE
S113090010927E0783E3809385070E945401089523
S113091082ED93E00E945E0110927E0789E180934C
S113092085070E94540108958CEF93E00E945E01B4
S113093010927E0780E1809385070E9454010895F8
S11309408EEB96E00E945E010E943A04089586E2CE
S113095094E00E945E0110926C070E940F01809146
S11309606C078823D1F38733A9F028F4853341F049
S1130970863359F039C0883391F08933F1F034C0AB
S113098084E594E00E945E01089580E894E00E946A
S11309905E0108958CEA94E00E945E0108958091BE
S11309A0790790917A07816090937A078093790709
S11309B088ED94E00E945E010895809179079091FA
S11309C07A07816090937A078093790780917F07F3
S11309D09091800784609093800780937F0784E0E0
S11309E095E00E945E0108958EEB96E00E945E0100
S11309F00E94A704089580E395E00E945E0110928E
S1130A006C070E940F0180916C078823D1F3823315
S1130A1049F08333A9F08133C1F48DE595E00E9458
S1130A205E0108958091790790917A07816090938F
S1130A307A078093790781E795E00E945E01089523
S1130A4089E895E00E945E0108958EEB96E00E948D
S1130A505E010E94FB04089582EA95E00E945E0113
S1130A6010926C070E940F0180916C078823D1F3C8
S1130A70813319F0823379F013C080917907909112
S1130A807A07886090937A078093790782ED95E0DE
S1130A900E945E01089582EF95E00E945E01089530
S1130AA08EEB96E00E945E010E942C05089589E970
S1130AB096E00E945E010E943A0488E696E00E9455
S1130AC05E010E94A70484E496E00E945E010E94F5
S1130AD0FB0483E196E00E945E010E942C050895C8
S1130AE08091830790918407892B21F081E680937C
S1130AF06C0726C08091770790917807892B21F0A5
S1130B008CE680936C0719C087EE96E00E945E0124
S1130B1010926C070E940F0180916C078823D1F317
S1130B208C3659F028F4813659F0853661F011C0BD
S1130B30853761F0883799F00CC00E9459020895F6
S1130B400E94990208950E941E0408950E94570568
S1130B5008958EEB96E00E945E010E948D01089537
S1130B600E94A6000E9480011092840710928307BD
S1130B7010927807109277071092820710928107DB
S1130B800E947005FDCF5058BB27AA270E94DB05A1
S1130B900C946C070E945E0738F00E94650720F0F1
S1130BA039F49F3F19F426F40C945B070EF4E09596
S1130BB0E7FB0C942C07E92F0E947D0758F3BA1722
S1130BC0620773078407950720F079F4A6F50C945F
S1130BD0B7070EF4E0950B2EBA2FA02D0B01B90127
S1130BE090010C01CA01A0011124FF27591B99F09F
S1130BF0593F50F4503E68F11A16F040A22F232FAB
S1130C00342F4427585FF3CF469537952795A795FA
S1130C10F0405395C9F77EF41F16BA0B620B730BA1
S1130C20840BBAF09150A1F0FF0FBB1F661F771F12
S1130C30881FC2F70EC0BA0F621F731F841F48F4C7
S1130C40879577956795B795F7959E3F08F0B0CF50
S1130C509395880F08F09927EE0F97958795089537
S1130C600E9444060C946C070E94650758F00E9489
S1130C705E0740F029F45F3F29F00C942C075111D2
S1130C800C94B8070C945B070E947D0768F39923C2
S1130C90B1F3552391F3951B550BBB27AA27621774
S1130CA07307840738F09F5F5F4F220F331F441F81
S1130CB0AA1FA9F335D00E2E3AF0E0E832D09150B5
S1130CC05040E695001CCAF72BD0FE2F29D0660FA2
S1130CD0771F881FBB1F261737074807AB07B0E8E5
S1130CE009F0BB0B802DBF01FF2793585F4F3AF0EB
S1130CF09E3F510578F00C942C070C94B8075F3F85
S1130D00E4F3983ED4F3869577956795B795F79570
S1130D109F5FC9F7880F911D9695879597F9089558
S1130D20E1E0660F771F881FBB1F621773078407F4
S1130D30BA0720F0621B730B840BBA0BEE1F88F703
S1130D40E09508950E94A9066894B1110C94B8071F
S1130D5008950E94850788F09F5798F0B92F992726
S1130D60B751B0F0E1F0660F771F881F991F1AF092
S1130D70BA95C9F714C0B13091F00E94B707B1E039
S1130D8008950C94B707672F782F8827B85F39F038
S1130D90B93FCCF3869577956795B395D9F73EF42B
S1130DA090958095709561957F4F8F4F9F4F0895D3
S1130DB0E89409C097FB3EF49095809570956195F1
S1130DC07F4F8F4F9F4F9923A9F0F92F96E9BB27A7
S1130DD09395F695879577956795B795F111F8CF23
S1130DE0FAF4BB0F11F460FF1BC06F5F7F4F8F4F8E
S1130DF09F4F16C0882311F096E911C0772321F084
S1130E009EE8872F762F05C0662371F096E8862F1B
S1130E1070E060E02AF09A95660F771F881FDAF772
S1130E20880F9695879597F908950E949F0790F0EB
S1130E309F3748F4911116F00C94B80760E070E005
S1130E4080E89FEB089526F41B16611D711D811D1A
S1130E500C9432070C944D0797F99F6780E870E073
S1130E6060E00895882371F4772321F09850872B4C
S1130E70762F07C0662311F499270DC09051862B55
S1130E8070E060E02AF09A95660F771F881FDAF702
S1130E90880F9695879597F908959F3F31F0915063
S1130EA020F4879577956795B795880F911D96954A
S1130EB0879597F908959FEF80EC089500240A948C
S1130EC01616170618060906089500240A94121621
S1130ED01306140605060895092E0394000C11F454
S1130EE0882352F0BB0F40F4BF2B11F460FF04C001
S1130EF06F5F7F4F8F4F9F4F089557FD9058440F5A
S1130F00551F59F05F3F71F04795880F97FB991F64
S1130F1061F09F3F79F08795089512161306140621
S1130F20551FF2CF4695F1DF08C0161617061806AE
S1130F30991FF1CF869571056105089408950E9463
S1130F408507A0F0BEE7B91788F4BB279F3860F483
S1130F501616B11D672F782F8827985FF7CF8695CF
S1130F6077956795B11D93959639C8F30895E894DC
S1130F70BB2766277727CB0197F9089516F00C94C1
S1130F804D070C945B0768940C942C070E9485070A
S1130F90A8F39923C1F3AEF3DF93CF931F930F9379
S1130FA0FF92C92FDD2788232AF02197660F771F28
S1130FB0881FDAF720E030E040E85FEB9FE38839F0
S1130FC020F0803E38F021968F770E94C405E4EB30
S1130FD0F0E004C00E94C405E1EEF0E00E947B084A
S1130FE08B01BE01EC01FB2E6F5771097595771FBC
S1130FF0880B990B0E94DA0628E132E741E35FE3AC
S11310000E942108AF2D9801AE01FF900F911F910E
S1131010CF91DF910E94DB050C946C070E9421089C
S11310200C946C070E945E0738F00E94650720F05C
S1131030952311F00C942C070C945B0711240C9449
S1131040B8070E947D0770F3959FC1F3950F50E098
S1131050551F629FF001729FBB27F00DB11D639F66
S1131060AA27F00DB11DAA1F649F6627B00DA11D0C
S1131070661F829F2227B00DA11D621F739FB00DB2
S1131080A11D621F839FA00D611D221F749F332722
S1131090A00D611D231F849F600D211D822F762FBB
S11310A06A2F11249F5750409AF0F1F088234AF098
S11310B0EE0FFF1FBB1F661F771F881F9150504004
S11310C0A9F79E3F510580F00C942C070C94B807A7
S11310D05F3FE4F3983ED4F3869577956795B7958B
S11310E0F795E7959F5FC1F7FE2B880F911D9695A5
S11310F0879597F90895DF93CF931F930F93FF92EA
S1131100EF92DF927B018C01689406C0DA2EEF0126
S11311100E942108FE01E894A591259135914591FD
S11311205591A6F3EF010E94DB05FE019701A8018A
S1131130DA9469F7DF90EF90FF900F911F91CF91B0
S1131140DF91089597FB072E16F4009407D077FDDE
S113115009D00E94B60807FC05D03EF4909581950D
S11311609F4F0895709561957F4F0895AA1BBB1BEF
S113117051E107C0AA1FBB1FA617B70710F0A61B93
S1131180B70B881F991F5A95A9F780959095BC01B4
S1131190CD010895FB01DC018D91019080190110AE
S11311A0D9F3990B0895FB01DC0101900D92002005
S10B11B0E1F70895F894FFCF64
S11311B82020202020202047726F7570203420477B
S11311C8726F757020342047726F75702034204711
S11311D8726F7570203420000000000000000000C9
S11311E80000000000000000002020202020202013
S11311F82020202020202020200020202020202003
S1131208202020200D0020460D000D0A456E74652F
S11312187220746865207570706572206269742024
S11312286F6620612076616C696420454550524F91
S11312384D206164647265737320746F20726561F4
S1131248642066726F6D3A20000D0A456E746572EB
S113125820746865206C6F77657220626974206FEA
S11312686620612076616C696420454550524F4D73
S1131278206164647265737320746F20726561649D
S11312882066726F6D3A20000D0A456E74657220EF
S113129874686520757070657220626974206F6661
S11312A820612076616C696420454550524F4D2079
S11312B86164647265737320746F207772697465EE
S11312C820746F3A20000D0A456E746572207468A4
S11312D865206C6F77657220626974206F6620617F
S11312E82076616C696420454550524F4D206164F5
S11312F8647265737320746F2077726974652074DF
S11313086F3A20000D0A456E746572207468652072
S11313186461746120746F2062652073746F7265F0
S1131328643A20000D0A5468652064617461206879
S11313386173206265656E20737563636573736694
S1131348756C6C79207772697474656E20746F207B
S113135874686520646573697265642045455052F4
S11313684F4D2061646472657373000D0A28522915
S1131378656164206F722028572972697465000DAD
S11313880A5768617420426175642052617465204B
S1131398776F756C6420796F75206C696B653F0A8B
S11313A8000D0A283129343830300D0A28322939F9
S11313B83630300D0A28332931343430300D0A28B8
S11313C8342931393230300D0A283529333834304C
S11313D8300D0A2836293537363030000D0A426177
S11313E875642072617465207375636365737366CD
S11313F8756C6C79206368616E67656420746F200E
S113140834383030000D0A426175642072617465A5
S1131418207375636365737366756C6C7920636890
S1131428616E67656420746F2039363030000D0AA8
S113143842617564207261746520737563636573B2
S11314487366756C6C79206368616E676564207473
S11314586F203134343030000D0A426175642072D3
S1131468617465207375636365737366756C6C79F1
S1131478206368616E67656420746F203139323087
S113148830000D0A426175642072617465207375B9
S1131498636365737366756C6C79206368616E67E2
S11314A8656420746F203338343030000D0A42618B
S11314B875642072617465207375636365737366FC
S11314C8756C6C79206368616E67656420746F203D
S11314D83537363030000D0A486F77206D616E79E4
S11314E82064617461206269747320617265206488
S11314F86573697265643F2028352C362C372C387F
S11315082C3929000D0A4E756D626572206F6620AC
S11315186461746120626974732068617320626510
S1131528656E206368616E67656420746F2035009A
S11315380D0A4E756D626572206F66206461746170
S1131548206269747320686173206265656E206324
S113155868616E67656420746F2036000D0A4E75E5
S11315686D626572206F66206461746120626974BB
S11315787320686173206265656E206368616E67B5
S1131588656420746F2037000D0A4E756D626572AC
S1131598206F6620646174612062697473206861D5
S11315A873206265656E206368616E676564207484
S11315B86F2038000D0A4E756D626572206F6620C3
S11315C86461746120626974732068617320626560
S11315D8656E206368616E67656420746F203900E6
S11315E80D0A53656C6563742061207061726974B7
S11315F8793A0D0A2831294E6F6E650D0A28322969
S11316084F64640D0A2833294576656E000D0A4E29
S11316186F207061726974792077617320736574BF
S1131628000D0A416E206F646420706172697479D8
S11316382077617320736574000D0A416E20657606
S1131648656E20706172697479207761732073659F
S113165874000D0A53656C65637420686F77206D98
S1131668616E792073746F7020626974732061727B
S11316786520646573697265643A2031206F72204D
S113168832000D0A4F6E652073746F70206269749E
S11316982077696C6C2062652070726F7669646566
S11316A864000D0A54776F2073746F702062697434
S11316B8732077696C6C2062652070726F76696438
S11316C86564000D0A506C6561736520496E707518
S11316D874207468652044657369726564204E7566
S11316E86D626572206F662053746F70204269744E
S11316F8733A20000D0A506C6561736520496E7059
S11317087574207468652044657369726564205033
S113171861726974793A20000D0A506C65617365C9
S113172820496E7075742074686520446573697205
S11317386564204E756D626572206F66204461741D
S11317486120426974733A2000506C6561736520A6
S1131758496E707574207468652044657369726590
S113176864204261756420526174653A20000D0A50
S1131778496E76616C696420436F6D6D616E642097
S113178854727920416761696E2E2E2E000D0A521B
S1131798656164793A20000D0A4D656E753A202812
S11317A84C2943442C2028412943442C20284529EA
S11317B84550524F4D2C20285529534152540D0A57
S11317C8000D0A627920457567656E6520526F635E
S11317D86B657920436F7079726967687420323059
S11317E831382C20416C6C2052696768747320521C
S11317F865736572766564000D0A4543452D343179
S1131808322041544D656761333238502054696E33
S109181879204F5300008B
S9030000FC
